:100000000C946D010C94AC110C9481110C9456114C
:100010000C942B110C9400110C94D5100C94AA1074
:100020000C947F100C9497010C94A2130C949701DC
:100030000C9497010C9497010C9497010C949701E0
:100040000C9435100C9497010C9497010C94970123
:100050000C9497010C9497010C9497010C949701C0
:100060000C9497010C9497010C9497010C949701B0
:100070000C9497010C9407130C9497010C9497011E
:100080000C9497010C94D7110C9497014003000035
:10009000000000120D0000000000000101C08000FF
:1000A000000000000000000000060000000000004A
:1000B0000000000000000000000000000000000040
:1000C000000000000000FF1F001E000000000000F4
:1000D0000000000000000000000000000000000020
:1000E0000000000000000000000000000000000010
:1000F00000000000000000000000000002001400EA
:10010000030014000400140005001400060014008D
:100110000700140008001400090014000A0014006D
:100120000B0014000C0010000D0010000E00100059
:100130000F0010001000100011001000120010003D
:100140001300100014001000150010001600140019
:10015000010014000100140001001400010014004B
:100160000100140000801F0000811F00FF0000003C
:10017000FF000000FF000000FF000000FF00000083
:10018000FF000000FF000000FF000000FF00000073
:10019000FF000000FF000000FF0000000000000062
:1001A000000000000000000000000000000000004F
:1001B0000000000000000000007000740078007C67
:1001C000008000840088008C009000940098009CBF
:1001D00000A000A400A800AC00B000B400B800BCAF
:1001E00000C000C400C800CC00D000D400D800DC9F
:1001F00000E000E400E800EC00F000F400F800FC8F
:10020000000001040108010C0100003A003700342D
:100210000031002200610064000000390036003324
:1002200000300021002000630000003B0038003552
:10023000003200230062006500050505050505057F
:100240000502020202020202020707040404040477
:100250000404040707030303030303030307010163
:100260000101010101010606060606060606010255
:10027000040810204080010204081020408008106B
:10028000010204081020408001020102040810202D
:10029000408004804020100804020101020408107C
:1002A0002040800000000A0B0C000000000000014C
:1002B000040506000000000000000000000000002F
:1002C000000000000000000000000000000000002E
:1002D0000000000000000000EF1311241FBECFEF4C
:1002E000D0E1DEBFCDBF11E0A0E0B1E0E8E0FFE289
:1002F00000E00BBF02C007900D92AA39B107D9F7F1
:1003000024E0AAE9B1E001C01D92A53CB207E1F7E3
:1003100011E0CDE6D1E004C02197FE010E94311624
:10032000CC36D107C9F70E9400140C9482170C94A4
:1003300000009091B40481E0913208F043C08091B4
:1003400090048111FCCF8091B30422E020939004AB
:1003500021E020938F042FEF20938E0423E934E0D3
:1003600030938D0420938C0410928B0490938A0414
:100370001092890490918904880F892B80938904B5
:1003800080918804813029F5109288048091890435
:10039000809373008091740083FDF8CF85EC809387
:1003A0007400809190048230E1F380918E048F3F3D
:1003B00091F080918E04803281F080918E048033A0
:1003C00071F084E0109292041092B404109291049F
:1003D000089585EEE4CF80E0F5CF82E0F3CF83E0AF
:1003E000F1CF90E0FC01ED55FD4F2491FC01E25965
:1003F000FD4F3491875C9D4FFC018491882341F12E
:100400002223C1F021502C30A8F4E22FF0E0E55F68
:10041000FD4F0C943116410241021A0217022902C3
:100420002C022F021A021A02330239023D029FB532
:100430009F779FBDE82FF0E0EE0FFF1FE75DFD4FB8
:10044000A591B4918FB7F894EC913E2B3C938FBF5C
:1004500008959FB59F7DEDCF9FB5977FEACF95B566
:100460009F7D95BDE7CF90918B009F7790938B00F8
:10047000E1CF90918B009F7DF9CF90918B00977F7A
:10048000F5CF93B79F7D93BFD5CFE82FF0E0E2592A
:10049000FB4F8085861739F06087618B80917004EF
:1004A0008360809370040895262F30E09091740447
:1004B0009078691729F0909170049C609093700473
:1004C0003695322F222737952795822B80937404F7
:1004D000809375040895E0914B02F0914C0230979F
:1004E00029F0109292041092B40409940895CF93C5
:1004F000DF93AC01E0914902F0914A023097F1F0AC
:1005000090914802809147029817C0F090E0292FFF
:1005100030E02617370754F4D901A755BE4F240FF2
:10052000351FE90128812C939F5FF1CF109248027B
:1005300060934702CB01DF91CF910994DF91CF9176
:100540000895CF93DF9390E0FC01E259FD4F249191
:10055000875C9D4FFC0184918823C9F090E0880F4F
:10056000991FFC01E75FFD4FA591B491FC01E75D88
:10057000FD4FC591D49161110DC09FB7F8948C9136
:10058000209582238C938881282328839FBFDF9125
:10059000CF910895623051F49FB7F8943C91822F27
:1005A000809583238C93E8812E2BEFCF8FB7F8941F
:1005B000EC912E2B2C938FBFEACF3FB7F89480910C
:1005C0003F0290914002A0914102B091420222B7B5
:1005D00006B600FE05C02F3F19F00196A11DB11D02
:1005E0003FBFBA2FA92F982F8827BC01CD01620FDA
:1005F000711D811D911D42E0660F771F881F991F95
:100600004A95D1F70895883008F5E82FF0E0EE0F0D
:10061000FF1FE75CFE4F718360838150873068F471
:10062000E82FF0E0EA5EFC4F0C9431162703340308
:1006300042035003570362036E0380916A008C7F6C
:10064000482B40936A0089B7816089BF08958091E3
:100650006A00837F440F551F440F551F482B40935A
:100660006A0089B78260F1CF80916A008F7C74E064
:10067000440F551F7A95E1F7482B40936A0089B7DC
:100680008460E3CF80916A008F7366E0440F551F4A
:100690006A95E1F7482B40936A0089B78860D5CF07
:1006A0008AB78C7F482B4ABF89B78061CECF8AB783
:1006B000837F440F551F440F551F482B4ABF89B7EE
:1006C0008062C3CF8AB78F7C24E0440F551F2A95E0
:1006D000E1F7482B4ABF89B78064B7CF8AB78F73D9
:1006E00096E0440F551F9A95E1F7482B4ABF89B70A
:1006F0008068ABCFFF920F931F93CF93DF930E943D
:10070000DD022091A7013091A801EB01C21BD30BA0
:100710002091510230915202C217D30708F461C0F0
:1007200040915B0250915C024130510561F0E091D3
:100730008402F0918502208130918602232330913A
:100740004F0223134EC07093A8016093A70100913C
:100750005302109154024230510509F419C143303B
:10076000510509F454C14130510561F48091A6014D
:10077000813009F449C0D8F1833009F486C084304F
:1007800009F4CFC080915B0290915C02019749F11E
:10079000C017D10708F073C18091A4018F5F8093C7
:1007A000A4018B30F0F081E090E090935C028093A4
:1007B0005B0241E050E06AE773E0809182020E94B0
:1007C000030310924F021092A60182E590E09093ED
:1007D00054028093530283E290E0909352028093FC
:1007E0005102DF91CF911F910F91FF900895C01793
:1007F000D10730F481E08093A601C093A501C2CF58
:1008000084E08093A601BECFC017D107E0F5109217
:10081000A6018091A4018F5F8093A4012091A5017E
:100820008C2F0C2E000C990B821B910927FD9395A0
:1008300097FF03C0919581959109499794F2109281
:100840005C0210925B0282E990E0909354028093E4
:10085000530282E590E090935202809351021092ED
:10086000A401F09050024F2D50E06AE773E08091B0
:1008700082020E9403038091860293E0F91229C04C
:1008800080934F027FCF83E0BCCFC017D10718F50C
:1008900010925C0210925B0282E990E09093540205
:1008A0008093530282E590E090935202809351022C
:1008B0001092A401F09050024F2D50E06AE773E0CF
:1008C000809182020E9403038091860233E0F31636
:1008D000B9F280E0D5CF90915002933009F482E0D4
:1008E0008093500282E090E090935C0280935B02E0
:1008F00082E990E0909354028093530282E590E065
:100900009093520280935102109261028091A4014F
:100910008093620210925E021092600210925F0257
:10092000C9CFC017D107A8F410925C0210925B02E5
:1009300082E990E0909354028093530282E590E024
:1009400090935202809351021092A40110925E0281
:1009500088CF82E090E090935C0280935B0282E912
:1009600090E0909354028093530282E590E090933C
:10097000520280935102109261028091A4018093EF
:10098000620210925E021092600210925F0269CFC2
:1009900090915E029F5F90935E0280915F02880F4C
:1009A000C017D107E0F080935F02983009F0F0CED5
:1009B000E0916102E630A9F410925C0210925B02B1
:1009C00082E990E0909354028093530282E590E094
:1009D000909352028093510210925E02D3CE8160B6
:1009E000E2CF83E090E090935C0280935B02909171
:1009F0005F0281E08E0F80936102F0E0E55AFD4FC7
:100A0000908780916002892780936002BBCEC017D7
:100A1000D10728F510925C0210925B0210925E02E0
:100A200082E990E0909354028093530282E590E033
:100A30009093520280935102809160028111ACCE5A
:100A400088E0E1E6F2E0A9E6B2E001900D928A9535
:100A5000E1F781E080935D021092A40193CE809132
:100A60006102863009F4A8CF82E090E090935C02A6
:100A700080935B0210925E0210925F0283CE10920E
:100A8000A401AFCE0895DC011496ED91FC91159769
:100A9000908111968C918095892380830895CF93BE
:100AA000DF93DC01EC91F0E0EE0FFF1FE75EFD4FFE
:100AB000C591D491988111968C91982381E009F485
:100AC00080E0DF91CF910895DC011296ED91FC91C9
:100AD000139711969C911197808161110EC090958A
:100AE000982390831496ED91FC911597908111961F
:100AF0008C918095892380830895982B9083089505
:100B00008091470290914802891B990B089585EDC9
:100B1000809374008091740084FDFCCF1092900447
:100B200008952091E901260F3327331F2132310523
:100B3000ECF420919004FC0190E080E0243069F016
:100B400082E00895A091E9012191AC0147535E4FE5
:100B5000A40FB52FB11D2C930196861798F38091A1
:100B6000E901680F6093E90180E0089581E008954C
:100B70000895E091480280914702E81730F4F0E0D0
:100B8000E755FE4F808190E008958FEF9FEF089525
:100B900090914802809147022FEF3FEF981748F459
:100BA000E92FF0E0E755FE4F208130E09F5F909302
:100BB0004802C9010895CF92DF92EF92FF920F93FE
:100BC0001F93CF93DF937C01CB018A012091910485
:100BD000222389F0EB016B01C40ED51ECC15DD0577
:100BE00069F06991D701ED91FC910190F081E02DC0
:100BF000C7010995F3CF642F0E949105C801DF91C9
:100C0000CF911F910F91FF90EF90DF90CF900895BB
:100C1000CF93DF931F92CDB7DEB769832091910404
:100C20002223F9F02091B404203258F021E030E082
:100C3000FC013383228390E080E00F90DF91CF911D
:100C4000089580919204E82FF0E0ED56FB4F9981D2
:100C500090838F5F809392048093B40481E090E04E
:100C6000ECCF61E0CE0101960E949105F7CF1F9372
:100C7000CF93DF93C0E2D2E01881698185EB94E0E5
:100C80000E940806612F85EB94E00E9408066A81A5
:100C900085EB94E0DF91CF911F910C94080690E0D2
:100CA00080E0089580E090E0892B29F080918A020D
:100CB00083FD0C9400000895009731F16091710458
:100CC000709172048617970709F06DC041504A3041
:100CD000D8F4E42FF0E0E159F94F0C94311679067D
:100CE00085069006A006A706AE06B506BC06C30696
:100CF000CB0680917604281739F0209376048091F2
:100D0000700481608093700408959091770480EF5F
:100D1000820F292B28239217B9F320937704EFCF62
:100D20003091770440E1249FC0011124832B229548
:100D3000207F215F8223381739F380937704DFCF38
:100D400080917804281701F320937804D8CF8091FC
:100D500079042817C9F220937904D1CF80917A04BD
:100D6000281791F220937A04CACF80917B04281728
:100D700059F220937B04C3CF80917C04281721F281
:100D800020937C04BCCF80917D04281709F4BCCF4C
:100D900020937D04B4CF80917E04281709F4B4CF4A
:100DA00020937E04ACCF309173043F773817190637
:100DB00009F0AACF4230A1F018F4413031F0089583
:100DC0004330D1F0443049F1089580917F042817D1
:100DD00009F49ACF20937F0480917004826092CFAF
:100DE0009091800480EF820F292B2823921709F419
:100DF0008BCF20938004F0CF3091800440E1249F7A
:100E0000C0011124832B2295207F215F8223381774
:100E100009F47ACF80938004DFCF80918104281772
:100E200009F472CF20938104D7CF0F93009721F15B
:100E300060917104709172048617970729F5822FCB
:100E400090E0309174043078231729F020917004D9
:100E50002460209370040D3189F00F3779F00F3042
:100E600081F49C013695322F222737952795809162
:100E70007404822B809374040F910895409374043A
:100E8000F0CF10927404EDCF309173043F77381790
:100E9000190691F7822F90E030917504307823176E
:100EA00029F0209170042860209370049695982F63
:100EB000882797958795482B40937504DDCF8150FF
:100EC0008C3108F073C0E82FF0E0E759F84F0C942C
:100ED00031168507870789078B078D078F079107CD
:100EE000930799079D079F07A507A907AD07B107B6
:100EF000B307B707BB07BD07BF07C107C307C707CE
:100F0000CB07CF07D107D307D507C4980895C39857
:100F10000895C2980895C098089596980895959850
:100F2000089594980895809165008F7E8093650060
:100F3000089580916500877FF9CFC79808958091C3
:100F400062008B7F809362000895809162008D7FA4
:100F5000F9CF809162008E7FF5CF809162008F7B08
:100F6000F1CF97980895809165008E7FDFCF8091B3
:100F700065008D7FDBCFA8980895A9980895AA9859
:100F80000895C5980895809162008F7EDBCF80918F
:100F900062008F7DD7CF809165008B7FC7CFAF98E0
:100FA0000895AE980895C6980895AB9808951F9334
:100FB000CF93DF93EC018A819B8110E0892BE9F4C8
:100FC0008D819E8110E0892B69F588818E7F8883D1
:100FD000DF91CF911F910895812F90E0880F991F85
:100FE000EA81FB81E80FF91F0190F081E02D8081FB
:100FF0008F7780830E945F071F5F8981181760F3D6
:10100000DFCF812F90E0880F991FED81FE81E80FDF
:10101000F91F0190F081E02D80818F7780830E94FD
:101020005F071F5F8C81181760F3CFCFFC019081A1
:101030009570953019F4CF010C94D7070895FC01F1
:10104000208120FF03C022FF0C94D7070895815010
:101050008C3108F073C0E82FF0E0EF5CF74F0C9490
:1010600031164D084F0851085308550857085908BC
:101070005B086108650867086D08710875087908DC
:101080007B087F0883088508870889088B088F08F4
:101090009308970899089B089D08C49A0895C39AD5
:1010A0000895C29A0895C09A0895969A0895959AB7
:1010B0000895949A089580916500806180936500F9
:1010C0000895809165008860F9CFC79A089580914E
:1010D0006200846080936200089580916200826063
:1010E000F9CF809162008160F5CF809162008064C9
:1010F000F1CF979A0895809165008160DFCF80914C
:1011000065008260DBCFA89A0895A99A0895AA9AEB
:101110000895C59A0895809162008061DBCF809127
:1011200062008062D7CF809165008460C7CFAF9A9C
:101130000895AE9A0895C69A0895AB9A089590912D
:101140007004882361F090619093700481E00E94A4
:10115000270880918A00887F80938A0008959F7E67
:101160009093700481E00E945F07109288001092B3
:10117000890080918A008460EFCFCF93C82F80913F
:1011800073028C1719F08C2F0E949F08C093730272
:10119000CC23F9F02FB7F894809157029091580220
:1011A000A0915902B0915A022FBF482F392F2A2FF0
:1011B0008B2F4093740230937502209376028093B4
:1011C0007702809173028C1749F08C2FCF910C9489
:1011D0009F0840E030E020E080E0EBCFCF91089521
:1011E0000F931F93CF938C01C0E0F8018181C81742
:1011F00020F0CF911F910F9108958C2F90E0880FD0
:10120000991FD8011296ED91FC91E80FF91F0190FA
:10121000F081E02D8081982F906890838F770E94D5
:101220002708CF5FE2CF1F93CF93DF93EC01288194
:1012300020FD15C022FF13C0322F3160388321FFFB
:1012400009C02A813B81232B51F0DF91CF911F915F
:101250000C94F0082D813E8110E0232BB9F4DF912E
:10126000CF911F910895812F90E0880F991FED81F4
:10127000FE81E80FF91F0190F081E02D8081982F09
:10128000906890838F770E9427081F5F8C811817C2
:1012900050F3E5CFCF93DF93EC018881982F9270C4
:1012A000691789F0662369F082608883888180FFEE
:1012B0000AC0CE010E941608CE01DF91CF910C9496
:1012C00013098D7FF2CFDF91CF9108951F93CF93B4
:1012D000DF93EC012881322F357099F4322F316081
:1012E000388321FF09C02A813B81232B51F0DF91F4
:1012F000CF911F910C94F0082D813E8110E0232B9B
:10130000B9F4DF91CF911F910895812F90E0880F5C
:10131000991FED81FE81E80FF91F0190F081E02D0A
:101320008081982F906890838F770E9427081F5F95
:101330008C81181750F3E5CFCF93DF93EC018881B0
:10134000982F9270691789F0662369F0826088830C
:10135000888180FF0AC0CE010E941F08CE01DF9164
:10136000CF910C9466098D7FF2CFDF91CF910895D4
:10137000AD9A8FE79EE30197F1F700C00000AD98AA
:1013800008950C94B8091F93CF93DF93EC018091DB
:10139000700484FF0BC08FE090E00E940B16182FA2
:1013A00080E190E00E940B16181306C0CE01DF9179
:1013B000CF911F910C940B16FFCF0C94C309CF93C0
:1013C000DF9320918702309188022F3F320721F06E
:1013D000C901DF91CF91089580918A0287FF2BC0C8
:1013E00086FF0FC089E090E00E94DD09C82F81E0F0
:1013F00090E00E94DD099C2F9093880280938702E1
:1014000015C089E090E00E94DD09C82F81E090E0DE
:101410000E94DD0990E4C99F90011124207C317065
:101420008F73282B30938802209387028091870244
:1014300090918802CECF85FF0CC081E190E00E94A0
:10144000DD09C82F82E190E00E94DD09C05CDD0B60
:10145000D2CF81E090E00E94DD0990E0CDCFCF9324
:10146000863823E0920719F138F4813823E0920797
:10147000D9F0CF910C940B16873823E09207D1F066
:10148000883823E09207A9F786E893E00E940B16BC
:10149000C82F87E893E00E940B1690E02FEFC29FC1
:1014A000800D911D1124E5CF81E893E0E2CF86E81D
:1014B00093E0DFCF87E893E0DCCF0E94BD08E1E74F
:1014C000F2E081E087831086EAE7F2E088E0DF015E
:1014D0001D928A95E9F708950F931F93CF93DF9399
:1014E000EC01162FC63883E0D80781F150F4C138DB
:1014F00083E0D807F9F0612FCE010E941316CE01C8
:101500001FC0C73883E0D80741F1C83883E0D80747
:1015100091F786E893E00E940B16082F87E893E086
:101520000E940B16C82FD0E08FEF089FC00DD11D71
:101530001124E1CF81E893E00E94131681E893E043
:10154000DF91CF911F910F910C940B1686E893E0D9
:101550000E94131686E893E0F3CF87E893E00E9499
:10156000131687E893E0ECCFCF93DF93D0E0C0E091
:10157000FE01E457FF4F6491CE010E94131621969D
:10158000CD3281E0D807A1F761E081E893E00E94C5
:101590001316C0E0CF5F8C2F0E942708CC31D1F703
:1015A000DF91CF9108950C94B40A1F93CF93DF93EA
:1015B000209138012223C1F02FEF3FEF30930F022B
:1015C00020930E02309313022093120230931702DD
:1015D0002093160230931B0220931A0230931F02AD
:1015E00020931E021092380182309105C9F0833099
:1015F000910509F458C020E030E0232B11F00E943F
:1016000000008091470290914802891B990B18169F
:1016100019060CF044C085EB94E00E94C805F1CF98
:10162000ECE0F2E0D0E0C0E0828193810196E9F441
:10163000CC0FDD1FCC0FDD1FC45FDD4F1B821A8274
:1016400085EB94E00E94C805888385EB94E00E94B6
:10165000C8058983E0915502F09156023097C9F48C
:10166000D0935602C09355021AC021963496C530C5
:10167000D105D1F68091470290914802891B990BC0
:101680001816190664F485EB94E00E94C805F2CFA1
:10169000FC01828193810097D9F7D383C283DF91C4
:1016A000CF911F91089585EB94E00E94C805182FF3
:1016B00085EB94E00E94C805D12F90E0C92FC80F98
:1016C000D11DD0932102C093200285EB94E00E94AB
:1016D000C805682F80932202CE01D7FF21C09F77D3
:1016E00090932102809320028830910561F0843824
:1016F00023E0920741F08C3A23E0920721F0843DE9
:1017000023E0920741F481E8683039F4DF91CF910A
:101710001F910C94B40A0E946C0A80932202BFCFDE
:101720000E942F0AFACF1F93CF93DF93EC01162F5D
:10173000089779F4662319F10E94B40A80E090E0DA
:10174000892BB9F0612FCE01DF91CF911F910C94BD
:10175000000080E090E0892BA9F781E0C11590E1BD
:10176000D90708F080E0111105C0DF91CF911F91DA
:10177000089581E027972297C0F780E0F6CF80E0B8
:1017800090E0892BF9F681E0F0CF0F931F93CF9370
:10179000DF93EC01162F8091700484FF25C0CF30B9
:1017A000D10561F48FE090E00E9413168FE090E085
:1017B000DF91CF911F910F910C940B168FE090E069
:1017C0000E940B16082F80E190E00E940B16081370
:1017D0000AC0C730D10531F0C830D10529F418301E
:1017E00049F0FFCFFFCFFFCF612FCE010E9413162C
:1017F000CE01DECF0E94B40A88E0DF91CF911F9125
:101800000F9108958331910588F48131910530F469
:101810008130910519F08930910531F42FEF3FEFB8
:1018200030938802209387020C94C50B8D3191056B
:10183000D9F7677F60938A02209171022F73362F48
:10184000307C232B20937102E9CFBF92CF92DF929D
:10185000EF92FF920F931F93CF93DF938B01B42EE0
:10186000690182FF23C083FF17C061E0C8010E94A5
:10187000930B8823D9F16B2DC8010E94020C8B11A8
:1018800035C0F601DF91CF911F910F91FF90EF903E
:10189000DF90CF90BF90099460E0C8010E94930B45
:1018A000882321F1C8010E94DD09E9CF842F8770C8
:1018B000C1E0D0E07E0101C0EE0C8A95EAF7D42F9A
:1018C000D870CB010E94DD09C82FB4FE1CC061E0B6
:1018D000C8010E94930B882349F0DD2389F0CE29AB
:1018E0006C2FC8010E94020C8C1759F2DF91CF9126
:1018F0001F910F91FF90EF90DF90CF90BF900895D0
:10190000E094CE21EDCF60E0C8010E94930B8823C4
:1019100069F3CE21DD2319F0C111B3CFE7CFCC237A
:1019200009F4AFCFE3CFAF92BF92DF92EF92FF9275
:101930000F931F93CF93DF937C01162FC42FD22ECA
:10194000D42FD07E8091710287FF2CC0D03EC1F58C
:10195000A0907202AA20A1F1B12CC5010E94DD095C
:10196000D82FC50101960E94DD09982F8D2FE8160A
:10197000F90631F56C2F70E0762F662766277370B5
:101980006D296F5F7F4F22E536E0402F8C2FDF916E
:10199000CF911F910F91FF90EF90DF90BF90AF908C
:1019A0000C94250C80FD33C0D03609F464C090F44B
:1019B000D03209F449C0D03409F45DC0DD2381F18F
:1019C000DF91CF911F910F91FF90EF90DF90BF902B
:1019D000AF900895D03A09F484C090F42C2F2F7161
:1019E00041E0D03869F7612FC701DF91CF911F9196
:1019F0000F91FF90EF90DF90BF90AF900C945C063A
:101A0000D03C09F475C0D03E09F4B4CFD9CF0E94C0
:101A1000DF098E159F0541F2E114F10429F2D0CFC0
:101A20008C2F8E7069F680E090E0892B49F28C2F24
:101A30008170DF91CF911F910F91FF90EF90DF9018
:101A4000BF90AF900C940000CF71CF3109F0B8CFA8
:101A50004D2D4F7761F0413061F02D2D221F22274F
:101A6000221F0DE1612FC7010E941507A9CF41E098
:101A7000F4CF40E0F2CF2C2F30E08C2F8F718130EB
:101A800029F030F0803121F0813109F540E001C0CA
:101A900041E095E0359527959A95E1F721700DE1A4
:101AA000612FC7010E94150780E090E0892B09F49F
:101AB00087CF4C2F612FC701DF91CF911F910F91DD
:101AC000FF90EF90DF90BF90AF900C940000C901A1
:101AD000880F991F8E71C4FB442740F9482B425050
:101AE000D8CF2C2F2F7043E0C4FF7DCF42E07BCFB7
:101AF000CF71CE3131F0CF3109F062CF2D2D45E0DD
:101B000072CF2D2D44E06FCF4F925F926F927F92F4
:101B10008F929F92AF92BF92CF92DF92EF92FF92FD
:101B20000F931F93CF93DF93C0914D02D0914E023C
:101B300080913602811116C02FB7F8948091570218
:101B400090915802A0915902B0915A022FBF8093F0
:101B5000320290933302A0933402B093350281E0B5
:101B60008093360280912A02811111C00E94DD0209
:101B700060517109810991096093260270932702CF
:101B8000809328029093290281E080932A020E9488
:101B9000DD022B013C018FB7F894C0905702D09022
:101BA0005802E0905902F0905A028FBF80913202A1
:101BB000BC2CB81A80912602909127029201281B12
:101BC000390BC90120912502211169C0FE0130E0C5
:101BD00020E045815681C417D50709F056C045E07D
:101BE000429F8001439F100D11240E5F1F4F0C0F69
:101BF0001D1F10932402009323020115110509F4FF
:101C000058C0F801148213828031910508F492C102
:101C1000853F914008F0B4C18D8D9E8D0E944F0587
:101C2000F801808381E08093250240922602509241
:101C300027026092280270922902F6E0FB1508F450
:101C40007DC18D8D9E8D0E944F05A0902302B09086
:101C5000240290912502E92FE695E695E695292F35
:101C6000277041E050E060E070E004C0440F551F71
:101C7000661F771F2A95D2F7EA0DFB2DF11D811102
:101C800029C040958081482327C02F5F3F4F35965C
:101C90002530310509F09DCF10E000E0AACF26E005
:101CA0002B1508F44BC18031910518F0853F914008
:101CB00040F2DF91CF911F910F91FF90EF90DF9055
:101CC000CF90BF90AF909F908F907F906F905F90DC
:101CD0004F9008958081482B408381E0890F809345
:101CE00025024092260250922702609228027092AA
:101CF0002902982F9770E9F68031E9F4F501808187
:101D0000873780F4EB8DFC8D309721F4BC8EAB8E41
:101D100007C0FC01838194810097D9F7B482A38224
:101D200010922502C0923202D0923302E092340225
:101D3000F0923502BECF8831A9F7F50111811F77E6
:101D40008DEF782E710EF7E2F71580F088818130E3
:101D5000A1F4812E912C1D3220F51B3228F4112381
:101D600051F121E0271508F18DE026C085ED810FA6
:101D7000883250F48881823061F3E0912302F0913F
:101D80002402D483C383CCCF8DEA810F883220F420
:101D90008881833091F7DDCF8EEF810F8230C8F6D6
:101DA000ECCF8DEA810F8230F8F2C4018F579C4F3F
:101DB0000E942F0A01C08881F501028190819B3722
:101DC00039F19F3709F46CC09737B9F60813D5CFAE
:101DD00061E08D8D9E8D0E9464058D8D9E8D0E948B
:101DE00043058FE697E10197F1F700C00000AD8D44
:101DF000BE8D1496ED91FC911597808111969C9162
:101E0000892B808360E08D8D9E8D0E946405B5CF07
:101E1000202F2870302F377004FF35C01D3278F521
:101E20001B3208F0AACF91E0971508F0A6CF41E049
:101E300050E060E070E004C0440F551F661F771F3C
:101E40003A95D2F7182F142B211103C0142F109597
:101E50001823612FC4018F579C4F0E946C0A1813DE
:101E60008CCF61E08D8D9E8D0E9464058D8D9E8D41
:101E70000E944305EFE6F7E13197F1F7B6CF13552E
:101E80001230A8F67ACF90E002C0959587953A95E2
:101E9000E2F7817099272817190609F06ECF98CFBD
:101EA0001B32D9F190F51330C1F1143009F465CF2C
:101EB000602FC4018F579C4F0E946C0A08131FC0EB
:101EC00061E08D8D9E8D0E9464058D8D9E8D0E949A
:101ED00043058FE697E10197F1F700C00000AD8D53
:101EE000BE8D1496ED91FC911597808111969C9171
:101EF000892B808360E08D8D9E8D0E946405111179
:101F00003CCF043078F4088338CF133531F01435E2
:101F100009F433CF1C3261F630CF083081F70E94CC
:101F2000B40A9FCF61E081E893E00E946C0A81E0EF
:101F3000888323CFF6E0FB1508F0BBCE99E09B1514
:101F400008F0B7CEC0923202D0923302E09234024F
:101F5000F092350200912302109124028D8D9E8D06
:101F60000E944F05F801808381E080932502409212
:101F7000260250922702609228027092290299CE7E
:101F800026E02B15D8F295CE9F92AF92BF92CF92BA
:101F9000DF92EF92FF920F931F93CF93DF937C0119
:101FA0006B01942E81E0F701481328C0A280B38012
:101FB000E7012196A114B10431F562E070E081E0FF
:101FC00090E00E943A168C01009731F0FC01D1821A
:101FD000C08288818F5F8883F1E09F1242C0F70141
:101FE00013830283DF91CF911F910F91FF90EF90A8
:101FF000DF90CF90BF90AF909F900895A580B6805E
:10200000E7012496D7CF88818F5F8883C82FD0E0DF
:1020100062E070E0CE010E943A168C0120E0AE0131
:1020200041505109822F90E08417950764F0C15008
:10203000D048CC0FDD1FC00FD11FD982C882C50187
:102040000E94F216C9CF880F991FF501E80FF91FFA
:1020500060817181800F911FFC01718360832F5F0C
:10206000E1CFF70116830583BDCF1F920F920FB604
:102070000F9211242F933F938F939F93AF93BF930E
:102080008091570290915802A0915902B0915A0242
:1020900030913E0223E0230F2D3768F126E8230F0D
:1020A0000296A11DB11D20933E028093570290938A
:1020B0005802A0935902B0935A0280913F02909126
:1020C0004002A0914102B09142020196A11DB11DB2
:1020D00080933F0290934002A0934102B09342024A
:1020E000BF91AF919F918F913F912F910F900FBE14
:1020F0000F901F9018950196A11DB11DD4CF1F926E
:102100000F920FB60F9211240BB60F922F933F939D
:102110004F935F936F937F938F939F93AF93BF93EF
:10212000EF93FF93E0914701F09148010995FF91EA
:10213000EF91BF91AF919F918F917F916F915F913F
:102140004F913F912F910F900BBE0F900FBE0F90AC
:102150001F9018951F920F920FB60F9211240BB675
:102160000F922F933F934F935F936F937F938F9330
:102170009F93AF93BF93EF93FF93E0914501F0914D
:1021800046010995FF91EF91BF91AF919F918F917A
:102190007F916F915F914F913F912F910F900BBE67
:1021A0000F900FBE0F901F9018951F920F920FB6B1
:1021B0000F9211240BB60F922F933F934F935F937F
:1021C0006F937F938F939F93AF93BF93EF93FF93FF
:1021D000E0914301F09144010995FF91EF91BF9186
:1021E000AF919F918F917F916F915F914F913F91AF
:1021F0002F910F900BBE0F900FBE0F901F90189550
:102200001F920F920FB60F9211240BB60F922F93BD
:102210003F934F935F936F937F938F939F93AF936E
:10222000BF93EF93FF93E0914101F0914201099533
:10223000FF91EF91BF91AF919F918F917F916F919E
:102240005F914F913F912F910F900BBE0F900FBE5A
:102250000F901F9018951F920F920FB60F92112496
:102260000BB60F922F933F934F935F936F937F9390
:102270008F939F93AF93BF93EF93FF93E0913F01B1
:10228000F09140010995FF91EF91BF91AF919F911E
:102290008F917F916F915F914F913F912F910F900F
:1022A0000BBE0F900FBE0F901F9018951F920F92AC
:1022B0000FB60F9211240BB60F922F933F934F93AB
:1022C0005F936F937F938F939F93AF93BF93EF939E
:1022D000FF93E0913D01F0913E010995FF91EF914F
:1022E000BF91AF919F918F917F916F915F914F912E
:1022F0003F912F910F900BBE0F900FBE0F901F902C
:1023000018951F920F920FB60F9211240BB60F92D1
:102310002F933F934F935F936F937F938F939F93ED
:10232000AF93BF93EF93FF93E0913B01F0913C019A
:102330000995FF91EF91BF91AF919F918F917F91FF
:102340006F915F914F913F912F910F900BBE0F9026
:102350000FBE0F901F9018951F920F920FB60F92FD
:1023600011240BB60F922F933F934F935F936F936C
:102370007F938F939F93AF93BF93EF93FF93E091DE
:102380003901F0913A010995FF91EF91BF91AF9119
:102390009F918F917F916F915F914F913F912F917D
:1023A0000F900BBE0F900FBE0F901F9018951F92AD
:1023B0000F920FB60F9211240BB60F922F933F93EB
:1023C0004F935F936F937F938F939F93AF93BF933D
:1023D000EF93FF9380917100887F803609F44DC0A0
:1023E00008F040C0883209F4A9C028F5803109F40A
:1023F0009DC0C8F4882309F407C1883009F496C049
:10240000FF91EF91BF91AF919F918F917F916F91CC
:102410005F914F913F912F910F900BBE0F900FBE88
:102420000F901F901895883109F488C0803241F7C9
:1024300080938E0414C0803409F4A5C040F4803326
:10244000B9F38833E9F680938E0485ECBCC08035FF
:1024500009F489C0883509F49EC0883489F60E9441
:102460008705CECF883909F494C038F5883729F02C
:1024700050F4883611F0803719F683E08093900489
:1024800010920B0257C0883809F483C0803919F0C4
:10249000803809F0B5CF80910B02803208F079C006
:1024A000E0910B0281E08E0F80930B02809173000C
:1024B000F0E0E551FE4F80833DC0803B39F0E0F411
:1024C000803A09F485C0883A09F09ACF84E0809375
:1024D00090041092EA011092E901E0914502F09116
:1024E000460209958091E90181110FC081E0809336
:1024F000E9011092C90109C0803C09F4A6CF883CCB
:1025000009F4A3CF883B09F07BCFE091EA0181E099
:102510008E0F8093EA01F0E0E753FE4F80818093B5
:1025200073009091EA018091E90131C080918904A2
:102530008093730085EC8093740062CF90918B043C
:1025400080918A049817B8F580918C0490918D043D
:10255000E0918B0421E02E0F20938B04E80FF92FDC
:10256000F11D8081E5CF20918C0430918D04E091A4
:102570008B0481E08E0F80938B0480917300E20FB7
:10258000F32FF11D808390918B0480918A0498171A
:1025900088F285E8D0CF20918C0430918D04E091B1
:1025A0008B0481E08E0F80938B0480917300E20F87
:1025B000F32FF11D808380918F04811150CF81E032
:1025C0008093880484EA809374001092900418CF5A
:1025D00085EC809374001092900480910B028032FD
:1025E00030F4E0910B02F0E0E551FE4F1082609173
:1025F0000B0270E0E0914302F09144028BEE91E017
:10260000099510920B02FCCE10928E0428CF1F92D7
:102610000F920FB60F9211240BB60F92EF92FF920A
:102620000F931F932F933F934F935F936F937F93DA
:102630008F939F93AF93BF93CF93DF93EF93FF93CA
:102640000FB6F894A89581B5886181BD11BC0FBE05
:10265000789485B78F7D85BF1092A301C1E0D1E04A
:10266000D0939104C093B304109292041092B404D6
:102670000E949901811105C08091A3018F5F809311
:10268000A301CF5FCF3761F78091A1019091A201A3
:10269000009731F00E94F2161092A2011092A1014F
:1026A000D091A301DD2371F161E070E08D2F90E006
:1026B0000E943A167C019093A2018093A10110E040
:1026C000C1E001E000939104C093B304109292041E
:1026D0001092B4040E949901811105C0F701E10F25
:1026E000F11DC0831F5FCF5FCF3761F7D23050F04D
:1026F00080918A00887F80938A0080917D008B7F03
:1027000080937D00109288001092890085B78062C6
:1027100085BFFF91EF91DF91CF91BF91AF919F91D5
:102720008F917F916F915F914F913F912F911F9169
:102730000F91FF90EF900F900BBE0F900FBE0F9078
:102740001F9018951F920F920FB60F9211240BB67F
:102750000F922F933F934F935F936F937F938F933A
:102760009F93AF93BF93CF93DF93EF93FF937894AF
:10277000CFE4D1E0E991F991808187FF08C08F779C
:102780002091A0019181921720F10E94270881E0F9
:10279000C738D80779F786E984BD8091A0018F5F9B
:1027A0008032D1F08093A001FF91EF91DF91CF9122
:1027B000BF91AF919F918F917F916F915F914F9159
:1027C0003F912F910F900BBE0F900FBE0F901F9057
:1027D00018950E945F07DBCF1092A001E5CFE5EBD3
:1027E000F4E01382128288EE93E0A0E0B0E08483EC
:1027F0009583A683B7838BE891E0918380830895C6
:10280000789483B78C6483BF87B7816087BFC2E049
:10281000CEBD8EB581608EBD8FB581608FBD85B513
:10282000846085BD85B5806485BD80918A008360A4
:1028300080938A0080918B00816080938B0087E871
:1028400086B91AB80FB6F894A89581B5886181BD8C
:1028500011BC0FBE1ABA17BA14BA11BA12B8109234
:1028600061001092640061E081E00E94A10281E0B9
:102870000E94F101109248021092470210929204B5
:102880001092B4041092900481E080938F0410920F
:10289000880483E10E94F10182E10E94F1018091AC
:1028A00071008C7F8093710088E48093700085E4D0
:1028B000809374008BE692E09093460280934502E9
:1028C00087E792E09093440280934302C0937200A2
:1028D0008CE08093700085ED9AE090934A0280939B
:1028E000490287E396E090934C0280934B02BC9A96
:1028F000BB9ABA9AB89A8E9A8D9A8C9A80916400F3
:10290000806180936400809164008860809364009B
:10291000BF9A809161008460809361008091610022
:10292000826080936100809161008160809361008A
:10293000809161008064809361008F9A809164002F
:102940008160809364008091640082608093640061
:10295000A09AA19AA29ABD9A809161008061809309
:1029600061008091610080628093610080916400C9
:10297000846080936400A79AA69ABE9AA39AA59AA7
:10298000D0E0C0E0FE01E457FF4F6491CE010E9409
:1029900013162196CD3221E0D207A1F761E081E83C
:1029A00093E00E941316C0E0CF5F8C2F0E9427088F
:1029B000CC31D1F78DE190E00E940B1680936E042C
:1029C0008CE190E00E940B1680936F048DE190E003
:1029D0000E940B1685FF03C181E190E00E940B1657
:1029E0008F73C82FD0E0DC2FCC2782E190E00E94CB
:1029F0000B16C82BD0937204C093710483E190E04E
:102A00000E940B168093730480E880937404809373
:102A1000750489EBA82E81E0B82E9FE4E92E91E0A1
:102A2000F92E670127E0922EF50105911491C80156
:102A30000E940B16C82FC80101960E940B16D82FB2
:102A40000E5F1F4FC8010E940B16803228F06FE105
:102A5000C8010E9424168FE1D6010D911D916D01D0
:102A6000F8018183D03809F4C9C0D13809F4CEC047
:102A7000D1110FC0C99DE0011124C557DD4F41E0C0
:102A8000B801CE010E94C40F40E0B801CE010E94FF
:102A9000C40FF2E0AF0EB11C27E8C21621E0D20647
:102AA00009F0C2CF85E190E00E940B1680FF05C0BF
:102AB0009091920294609093920281FF05C0909150
:102AC000990294609093990282FF05C09091A002B0
:102AD00094609093A00283FF05C09091A702946038
:102AE0009093A70284FF05C09091AE0294609093EA
:102AF000AE0285FF05C09091B50294609093B50237
:102B000086FF05C09091BC0294609093BC0287FF41
:102B100005C08091C30284608093C30286E190E087
:102B20000E940B1680FF05C090918B0294609093D9
:102B30008B0282FF05C09091CA0294609093CA02F2
:102B400083FF05C09091D10294609093D10284FFDD
:102B500005C09091D80294609093D80285FF05C07B
:102B60009091DF0294609093DF0286FF05C0909100
:102B7000E60294609093E60287FF05C08091ED0223
:102B800084608093ED02D701ED91FD917D018081FC
:102B90008F7780830E945F07B7E8EB16B1E0FB06F2
:102BA00091F70EE614E0CBE8D2E0CE010E94660970
:102BB000CE010E941309EFEFF9E628E1E150F04061
:102BC0002040E1F700C00000CE010E941F08CE01A6
:102BD0000E94160827960C171D0739F7E4CF81E0ED
:102BE00090E00E940B16181634F063E081E090E04C
:102BF0000E94131683E0C82FD0E0FCCEC99DC0010F
:102C0000112440E0B80185579D4F41CFC99DC001B7
:102C1000112441E0F7CFE199FECF9FBB8EBBE09A34
:102C200099278DB30895262FE199FECF9FBB8EBBC8
:102C3000E09A01970DB2021631F02DBB0FB6F89451
:102C4000E29AE19A0FBE0895262FE199FECF9FBB2D
:102C50008EBB2DBB0FB6F894E29AE19A0FBE019697
:102C60000895EE0FFF1F0024001C0BBE0790F69185
:102C7000E02D09940F931F93CF93DF93869F8001DC
:102C8000879F100D969F100D1124C8010E945616A3
:102C9000EC01009729F0A80170E060E00E947B172A
:102CA000CE01DF91CF911F910F9108950F931F9344
:102CB000CF93DF938230910510F482E090E0E091B1
:102CC000C304F091C40430E020E0B0E0A0E030970D
:102CD00099F42115310509F44AC0281B390B243019
:102CE0003105D8F58A819B816115710589F1FB0158
:102CF00093838283FE0111C040815181028113813F
:102D000048175907E0F04817590799F4109761F0F0
:102D100012960C93129713961C933296CF01DF9163
:102D2000CF911F910F9108950093C3041093C40491
:102D3000F4CF2115310551F04217530738F0A9019E
:102D4000DB019A01BD01DF01F801C1CFEF01F9CF2D
:102D50009093C4048093C304CDCFFE01E20FF31F10
:102D6000819391932250310939832883D7CF2091C1
:102D7000C1043091C204232B41F420914B013091C6
:102D80004C013093C2042093C10420914901309139
:102D90004A012115310541F42DB73EB740914D014F
:102DA00050914E01241B350BE091C104F091C204F7
:102DB000E217F307A0F42E1B3F0B2817390778F012
:102DC000AC014E5F5F4F2417350748F04E0F5F1F71
:102DD0005093C2044093C104819391939FCFF0E03C
:102DE000E0E09CCFCF93DF930097E9F0FC013297AE
:102DF00013821282A091C304B091C404ED0130E0AB
:102E000020E01097A1F420813181820F931F20913F
:102E1000C1043091C2042817390709F061C0F0934A
:102E2000C204E093C104DF91CF910895EA01CE1767
:102E3000DF07E8F54A815B819E0141155105B1F735
:102E4000E901FB83EA8349915991C40FD51FEC171F
:102E5000FD0761F4808191810296840F951FE9013D
:102E600099838883828193819B838A83F0E0E0E069
:102E700012968D919C9113970097B9F52D913C91E5
:102E80001197CD010296820F931F2091C1043091BA
:102E9000C2042817390739F6309751F51092C40447
:102EA0001092C304B093C204A093C104BCCFD383D7
:102EB000C28340815181840F951FC817D90761F4DF
:102EC0004E5F5F4F88819981480F591F518340831E
:102ED0008A819B81938382832115310509F0B0CFCC
:102EE000F093C404E093C3049ECFFD01DC01C0CF86
:102EF00013821282D7CFDC0101C06D934150504044
:082F0000E0F70895F894FFCFFB
:102F08001CFF1BFF1AFF19FF18FF17FF16FF15FFFD
:102F180014FF13FF12FF11FF10FF0FFF0EFF0DFF2D
:102F28000CFF0BFF0AFF09FF08FF07FF06FF05FF5D
:102F380004FF03FF02FF01FF01420500000000003B
:102F48000000000000000000000000C504800036FA
:102F5800013401320130012E012C012A01280126F9
:102F6800012401220120011E011C011A0118011669
:102F7800011401120110010E010C010A01080106D9
:102F880001040102010001000000000806DB054FF2
:0A2F980006B8058005C805B905005C
:00000001FF
