:100000000C943D010C94ED0B0C94C20B0C94970BCB
:100010000C946C0B0C94410B0C94160B0C94EB0A87
:100020000C94C00A0C9467010C94E30D0C946701C6
:100030000C9467010C9467010C9467010C946701A0
:100040000C94760A0C9467010C9467010C94670178
:100050000C9467010C9467010C9467010C94670180
:100060000C9467010C9467010C9467010C94670170
:100070000C9467010C94480D0C9467010C94670173
:100080000C9467010C94180C0C9467014003000059
:10009000000000120D0000000000000101C08000FF
:1000A000000000000000000000060000000000004A
:1000B0000000000000000000000000000000000040
:1000C000000000000000FF1F001E000000000000F4
:1000D0000000000000000000000000000000000020
:1000E0000000000000000000000000000000000010
:1000F00000000000000000000000000002001400EA
:10010000030014000400140005001400060014008D
:100110000700140008001400090014000A0014006D
:100120000B0014000C0010000D0010000E00100059
:100130000F0010001000100011001000120010003D
:100140001300100014001000150010001600140019
:10015000010014000100140001001400010014004B
:100160000100140000801F0000811F00FF0000003C
:10017000FF000000FF000000FF000000FF00000083
:10018000FF000000FF000000FF000000FF00000073
:10019000FF000000FF000000FF0000000000000062
:1001A000000000000000000000000000000000004F
:1001B00000000000000000000000003A003700349A
:1001C00000310022006100640000003B003800356F
:1001D00000320023006200650005050505050505E0
:1001E00005020202020202020207070404040404D8
:1001F00004040407070303030303030303070101C4
:1002000001010101010106060606060606060102B5
:1002100004081020408001020408102040800810CB
:10022000010204081020408001020102040810208D
:1002300040800480402010080402010102040810DC
:100240002040800000000A0B0C00000000000001AC
:10025000040506000000000000000000000000008F
:10026000000000000000000000000000000000008E
:100270000000000000000000300E11241FBECFEF70
:10028000D0E1DEBFCDBF11E0A0E0B1E0E8E1F1E2F6
:1002900000E00BBF02C007900D92AA39B107D9F751
:1002A00022E0AAE9B1E001C01D92A43AB207E1F749
:1002B00011E0CDE3D1E004C02197FE010E94390F87
:1002C000CC33D107C9F70E94410E0C948A100C94CC
:1002D00000009091930281E0913208F043C0809138
:1002E0006F028111FCCF8091920222E020936F0275
:1002F00021E020936E022FEF20936D0222E732E07F
:1003000030936C0220936B0210926A029093690200
:100310001092680290916802880F892B809368027E
:1003200080916702813029F51092670280916802FE
:10033000809373008091740083FDF8CF85EC8093E7
:10034000740080916F028230E1F380916D028F3FE3
:1003500091F080916D02803281F080916D02803346
:1003600071F084E010927102109293021092700268
:10037000089585EEE4CF80E0F5CF82E0F3CF83E00F
:10038000F1CF90E0FC01ED5BFD4F2491FC01E25FB9
:10039000FD4F349187529E4FFC018491882341F197
:1003A0002223C1F021502C30A8F4E22FF0E0E552D6
:1003B000FE4F0C94390F11021102EA01E701F90115
:1003C000FC01FF01EA01EA01030209020D029FB5E7
:1003D0009F779FBDE82FF0E0EE0FFF1FE753FE4F22
:1003E000A591B4918FB7F894EC913E2B3C938FBFBD
:1003F00008959FB59F7DEDCF9FB5977FEACF95B5C7
:100400009F7D95BDE7CF90918B009F7790938B0058
:10041000E1CF90918B009F7DF9CF90918B00977FDA
:10042000F5CF93B79F7D93BFD5CFE82FF0E0E35B87
:10043000FD4F8085861739F06087618B80914F0270
:10044000836080934F020895262F30E090915302ED
:100450009078691729F090914F029C6090934F0219
:100460003695322F222737952795822B809353027A
:10047000809354020895E0912B02F0912C02309762
:1004800029F0109271021092930209940895CF936B
:10049000DF93AC01E0912902F0912A023097F1F04C
:1004A00090912802809127029817C0F090E0292FA0
:1004B00030E02617370754F4D901AC55BE4F240F4E
:1004C000351FE90128812C939F5FF1CF10922802FC
:1004D00060932702CB01DF91CF910994DF91CF91F7
:1004E000089508958091270290912802891B990B05
:1004F000089585ED809374008091740084FDFCCF95
:1005000010926F0208952091E401260F3327331FC4
:1005100021323105ECF420916F02FC0190E080E083
:10052000243069F082E00895A091E4012191AC01AA
:100530004C535E4FA40FB52FB11D2C930196861717
:1005400098F38091E401680F6093E40180E00895DE
:1005500081E008950895E091280280912702E8172C
:1005600030F4F0E0EC55FE4F808190E008958FEF7D
:100570009FEF089590912802809127022FEF3FEF7F
:10058000981748F4E92FF0E0EC55FE4F208130E059
:100590009F5F90932802C9010895CF92DF92EF9256
:1005A000FF920F931F93CF93DF937C01CB018A01BE
:1005B00020917002222389F0EB016B01C40ED51E3D
:1005C000CC15DD0569F06991D701ED91FC910190A1
:1005D000F081E02DC7010995F3CF642F0E948302BB
:1005E000C801DF91CF911F910F91FF90EF90DF90A5
:1005F000CF900895CF93DF931F92CDB7DEB7698375
:10060000209170022223F9F020919302203258F0B9
:1006100021E030E0FC013383228390E080E00F9002
:10062000DF91CF91089580917102E82FF0E0EE58AC
:10063000FD4F998190838F5F809371028093930225
:1006400081E090E0ECCF61E0CE0101960E94830250
:10065000F7CF1F93CF93DF93CBE1D2E0188169816D
:1006600084E992E00E94FA02612F84E992E00E94FC
:10067000FA026A8184E992E0DF91CF911F910C9494
:10068000FA0290E080E0089580E090E0892B29F064
:1006900080914C0283FD0C9400000895009731F185
:1006A00060915002709151028617970709F06DC052
:1006B00041504A30D8F4E42FF0E0EF59FC4F0C944D
:1006C000390F6B037703820392039903A003A703F7
:1006D000AE03B503BD0380915502281739F020936E
:1006E000550280914F02816080934F02089590914E
:1006F000560280EF820F292B28239217B9F32093FB
:100700005602EFCF3091560240E1249FC0011124E0
:10071000832B2295207F215F8223381739F3809322
:100720005602DFCF80915702281701F3209357021A
:10073000D8CF809158022817C9F220935802D1CF00
:1007400080915902281791F220935902CACF8091C3
:100750005A02281759F220935A02C3CF80915B02A4
:10076000281721F220935B02BCCF80915C022817EE
:1007700009F4BCCF20935C02B4CF80915D022817AE
:1007800009F4B4CF20935D02ACCF309152023F7791
:100790003817190609F0AACF4230A1F018F44130F9
:1007A00031F008954330D1F0443049F108958091FB
:1007B0005E02281709F49ACF20935E0280914F02BF
:1007C000826092CF90915F0280EF820F292B2823C5
:1007D000921709F48BCF20935F02F0CF30915F0224
:1007E00040E1249FC0011124832B2295207F215FAB
:1007F0008223381709F47ACF80935F02DFCF80918C
:100800006002281709F472CF20936002D7CF0F93AC
:10081000009721F16091500270915102861797075D
:1008200029F5822F90E0309153023078231729F078
:1008300020914F02246020934F020D3189F00F3731
:1008400079F00F3081F49C013695322F22273795AD
:10085000279580915302822B809353020F91089524
:1008600040935302F0CF10925302EDCF30915202D9
:100870003F773817190691F7822F90E03091540294
:100880003078231729F020914F02286020934F02DF
:100890009695982F882797958795482B40935402D3
:1008A000DDCF81508C3108F073C0E82FF0E0E55ABD
:1008B000FB4F0C94390F770479047B047D047F048B
:1008C0008104830485048B048F04910497049B04A2
:1008D0009F04A304A504A904AD04AF04B104B304A8
:1008E000B504B904BD04C104C304C504C704C49855
:1008F0000895C3980895C2980895C0980895969849
:1009000008959598089594980895809165008F7E34
:1009100080936500089580916500877FF9CFC7981F
:100920000895809162008B7F80936200089580918A
:1009300062008D7FF9CF809162008E7FF5CF80912C
:1009400062008F7BF1CF97980895809165008E7F2C
:10095000DFCF809165008D7FDBCFA8980895A9989F
:100960000895AA980895C5980895809162008F7E91
:10097000DBCF809162008F7DD7CF809165008B7F28
:10098000C7CFAF980895AE980895C6980895AB98CC
:1009900008951F93CF93DF93EC018A819B8110E030
:1009A000892BE9F48D819E8110E0892B69F588817E
:1009B0008E7F8883DF91CF911F910895812F90E0E2
:1009C000880F991FEA81FB81E80FF91F0190F081E0
:1009D000E02D80818F7780830E9451041F5F898181
:1009E000181760F3DFCF812F90E0880F991FED81FA
:1009F000FE81E80FF91F0190F081E02D80818F7753
:100A000080830E9451041F5F8C81181760F3CFCF41
:100A1000FC0190819570953019F4CF010C94C904B4
:100A20000895FC01208120FF03C022FF0C94C9041B
:100A3000089581508C3108F073C0E82FF0E0ED5D2F
:100A4000FA4F0C94390F3F0541054305450547050D
:100A500049054B054D055305570559055F056305C8
:100A600067056B056D0571057505770579057B05CE
:100A70007D058105850589058B058D058F05C49A42
:100A80000895C39A0895C29A0895C09A0895969AAF
:100A90000895959A0895949A0895809165008061CB
:100AA000809365000895809165008860F9CFC79AAA
:100AB000089580916200846080936200089580911F
:100AC00062008260F9CF809162008160F5CF8091F1
:100AD00062008064F1CF979A0895809165008160EB
:100AE000DFCF809165008260DBCFA89A0895A99A34
:100AF0000895AA9A0895C59A089580916200806128
:100B0000DBCF809162008062D7CF809165008460E6
:100B1000C7CFAF9A0895AE9A0895C69A0895AB9A32
:100B2000089590914F02882361F0906190934F0255
:100B300081E00E94190580918A00887F80938A0055
:100B400008959F7E90934F0281E00E94510410927D
:100B500088001092890080918A008460EFCFCF9343
:100B6000C82F809135028C1719F08C2F0E949105A7
:100B7000C0933502CC23F9F02FB7F89480912F025F
:100B800090913002A0913102B09132022FBF482FD4
:100B9000392F2A2F8B2F4093360230933702209320
:100BA000380280933902809135028C1749F08C2FDE
:100BB000CF910C94910540E030E020E080E0EBCF55
:100BC000CF9108950F931F93CF938C01C0E0F8014C
:100BD0008181C81720F0CF911F910F9108958C2F1C
:100BE00090E0880F991FD8011296ED91FC91E80FC3
:100BF000F91F0190F081E02D8081982F90689083FB
:100C00008F770E941905CF5FE2CF1F93CF93DF93B9
:100C1000EC012881322F357099F4322F31603883FE
:100C200021FF09C02A813B81232B51F0DF91CF9115
:100C30001F910C94E2052D813E8110E0232BB9F425
:100C4000DF91CF911F910895812F90E0880F991F18
:100C5000ED81FE81E80FF91F0190F081E02D808188
:100C6000982F906890838F770E9419051F5F8C8161
:100C7000181750F3E5CFCF93DF93EC018881982FBD
:100C80009270691789F0662369F082608883888191
:100C900080FF0AC0CE010E941105CE01DF91CF91E5
:100CA0000C9405068D7FF2CFDF91CF9108951F93AD
:100CB000CF93DF93EC01288120FD15C022FF13C0E4
:100CC000322F3160388321FF09C02A813B81232BD9
:100CD00051F0DF91CF911F910C94E2052D813E815F
:100CE00010E0232BB9F4DF91CF911F910895812F4C
:100CF00090E0880F991FED81FE81E80FF91F0190A8
:100D0000F081E02D8081982F906890838F770E94EA
:100D100019051F5F8C81181750F3E5CFCF93DF9330
:100D2000EC018881982F9270691789F0662369F029
:100D300082608883888180FF0AC0CE010E940805F6
:100D4000CE01DF91CF910C9457068D7FF2CFDF91CA
:100D5000CF910895AD9A8FE79EE30197F1F700C018
:100D60000000AD9808950C94AA061F93CF93DF93CB
:100D7000EC0180914F0284FF0BC08FE090E00E9455
:100D8000200F182F80E190E00E94200F181306C05A
:100D9000CE01DF91CF911F910C94200FFFCF0C94C7
:100DA000B506CF93DF932091490230914A022F3F3D
:100DB000320721F0C901DF91CF91089580914C0253
:100DC00087FF2BC086FF0FC089E090E00E94CF060E
:100DD000C82F81E090E00E94CF069C2F90934A029A
:100DE0008093490215C089E090E00E94CF06C82F89
:100DF00081E090E00E94CF0690E4C99F9001112409
:100E0000207C31708F73282B30934A022093490243
:100E10008091490290914A02CECF85FF0CC081E1BA
:100E200090E00E94CF06C82F82E190E00E94CF069A
:100E3000C05CDD0BD2CF81E090E00E94CF0690E055
:100E4000CDCFCF93863823E0920719F138F481385B
:100E500023E09207D9F0CF910C94200F873823E03C
:100E60009207D1F0883823E09207A9F786E893E04B
:100E70000E94200FC82F87E893E00E94200F90E087
:100E80002FEFC29F800D911D1124E5CF81E893E0E3
:100E9000E2CF86E893E0DFCF87E893E0DCCF0F93E3
:100EA0001F93CF93DF93EC01162FC63883E0D8074A
:100EB00081F150F4C13883E0D807F9F0612FCE01F9
:100EC0000E94280FCE011FC0C73883E0D80741F128
:100ED000C83883E0D80791F786E893E00E94200F96
:100EE000082F87E893E00E94200FC82FD0E08FEFF3
:100EF000089FC00DD11D1124E1CF81E893E00E942D
:100F0000280F81E893E0DF91CF911F910F910C940E
:100F1000200F86E893E00E94280F86E893E0F3CF45
:100F200087E893E00E94280F87E893E0ECCFCF9307
:100F3000DF93D0E0C0E0FE01E457FF4F6491CE01A3
:100F40000E94280F2196CD3281E0D807A1F761E0F9
:100F500081E893E00E94280FC0E0CF5F8C2F0E94B1
:100F60001905CC31D1F7DF91CF9108950C949707F3
:100F70001F93CF93DF93209138012223C1F02FEFED
:100F80003FEF30930A022093090230930E02209320
:100F90000D02309312022093110230931602209317
:100FA000150230931A0220931902109238018230F0
:100FB0009105C9F08330910509F458C020E030E074
:100FC000232B11F00E9400008091270290912802AB
:100FD000891B990B181619060CF044C084E992E09D
:100FE0000E94BA02F1CFE7E0F2E0D0E0C0E08281F7
:100FF00093810196E9F4CC0FDD1FCC0FDD1FC95F93
:10100000DD4F1B821A8284E992E00E94BA02888333
:1010100084E992E00E94BA028983E0912D02F09166
:101020002E023097C9F4D0932E02C0932D021AC01D
:1010300021963496C530D105D1F680912702909142
:101040002802891B990B1816190664F484E992E0AA
:101050000E94BA02F2CFFC01828193810097D9F7F6
:10106000D383C283DF91CF911F91089584E992E0E9
:101070000E94BA02182F84E992E00E94BA02D12F8E
:1010800090E0C92FC80FD11DD0931C02C0931B0242
:1010900084E992E00E94BA02682F80931D02CE017B
:1010A000D7FF21C09F7790931C0280931B0288304A
:1010B000910561F0843823E0920741F08C3A23E0F7
:1010C000920721F0843D23E0920741F481E86830E3
:1010D00039F4DF91CF911F910C9497070E944F072D
:1010E00080931D02BFCF0E942107FACF1F93CF9399
:1010F000DF93EC01162F089779F4662319F10E940B
:10110000970780E090E0892BB9F0612FCE01DF9145
:10111000CF911F910C94000080E090E0892BA9F7FB
:1011200081E0C11590E1D90708F080E0111105C0F8
:10113000DF91CF911F91089581E027972297C0F703
:1011400080E0F6CF80E090E0892BF9F681E0F0CFE7
:101150000F931F93CF93DF93EC01162F80914F02D3
:1011600084FF25C0CF30D10561F48FE090E00E946C
:10117000280F8FE090E0DF91CF911F910F910C9499
:10118000200F8FE090E00E94200F082F80E190E078
:101190000E94200F08130AC0C730D10531F0C830B3
:1011A000D10529F4183049F0FFCFFFCFFFCF612FD1
:1011B000CE010E94280FCE01DECF0E94970788E063
:1011C000DF91CF911F910F9108950E94AF05E3E346
:1011D000F2E081E087831086ECE3F2E088E0DF0153
:1011E0001D928A95E9F708958331910588F481313C
:1011F000910530F48130910519F08930910531F471
:101200002FEF3FEF30934A02209349020C94A80835
:101210008D319105D9F7677F60934C02209133029D
:101220002F73362F307C232B20933302E9CFBF92CC
:10123000CF92DF92EF92FF920F931F93CF93DF93A2
:101240008B01B42E690182FF23C083FF17C061E0C8
:10125000C8010E9476088823D9F16B2DC8010E942D
:10126000F4088B1135C0F601DF91CF911F910F91DA
:10127000FF90EF90DF90CF90BF90099460E0C8019D
:101280000E947608882321F1C8010E94CF06E9CF89
:10129000842F8770C1E0D0E07E0101C0EE0C8A95FA
:1012A000EAF7D42FD870CB010E94CF06C82FB4FE26
:1012B0001CC061E0C8010E947608882349F0DD2344
:1012C00089F0CE296C2FC8010E94F4088C1759F2BE
:1012D000DF91CF911F910F91FF90EF90DF90CF9012
:1012E000BF900895E094CE21EDCF60E0C8010E9448
:1012F0007608882369F3CE21DD2319F0C111B3CF1D
:10130000E7CFCC2309F4AFCFE3CFAF92BF92DF9208
:10131000EF92FF920F931F93CF93DF937C01162FD1
:10132000C42FD22ED42FD07E8091330287FF2CC0C1
:10133000D03EC1F5A0903402AA20A1F1B12CC50184
:101340000E94CF06D82FC50101960E94CF06982F84
:101350008D2FE816F90631F56C2F70E0762F662791
:10136000662773706D296F5F7F4F24E433E0402F51
:101370008C2FDF91CF911F910F91FF90EF90DF9015
:10138000BF90AF900C94170980FD33C0D03609F49C
:1013900064C090F4D03209F449C0D03409F45DC07F
:1013A000DD2381F1DF91CF911F910F91FF90EF909D
:1013B000DF90BF90AF900895D03A09F484C090F4C4
:1013C0002C2F2F7141E0D03869F7612FC701DF91D1
:1013D000CF911F910F91FF90EF90DF90BF90AF9052
:1013E0000C944E03D03C09F475C0D03E09F4B4CF40
:1013F000D9CF0E94D1068E159F0541F2E114F10468
:1014000029F2D0CF8C2F8E7069F680E090E0892B86
:1014100049F28C2F8170DF91CF911F910F91FF9036
:10142000EF90DF90BF90AF900C940000CF71CF3160
:1014300009F0B8CF4D2D4F7761F0413061F02D2D7F
:10144000221F2227221F0DE1612FC7010E940704DE
:10145000A9CF41E0F4CF40E0F2CF2C2F30E08C2F29
:101460008F71813029F030F0803121F0813109F520
:1014700040E001C041E095E0359527959A95E1F768
:1014800021700DE1612FC7010E94070480E090E008
:10149000892B09F487CF4C2F612FC701DF91CF91A2
:1014A0001F910F91FF90EF90DF90BF90AF900C9441
:1014B0000000C901880F991F8E71C4FB442740F9B1
:1014C000482B4250D8CF2C2F2F7043E0C4FF7DCF44
:1014D00042E07BCFCF71CE3131F0CF3109F062CF16
:1014E0002D2D45E072CF2D2D44E06FCF1F920F922E
:1014F0000FB60F9211242F933F938F939F93AF9327
:10150000BF9380912F0290913002A0913102B0914F
:1015100032023091220223E0230F2D3768F126E8B2
:10152000230F0296A11DB11D2093220280932F024A
:1015300090933002A0933102B093320280911E0248
:1015400090911F02A0912002B09121020196A11D4D
:10155000B11D80931E0290931F02A0932002B093AE
:101560002102BF91AF919F918F913F912F910F9049
:101570000FBE0F901F9018950196A11DB11DD4CFDD
:101580001F920F920FB60F9211240BB60F922F934A
:101590003F934F935F936F937F938F939F93AF93FB
:1015A000BF93EF93FF93E0914701F09148010995B4
:1015B000FF91EF91BF91AF919F918F917F916F912B
:1015C0005F914F913F912F910F900BBE0F900FBEE7
:1015D0000F901F9018951F920F920FB60F92112423
:1015E0000BB60F922F933F934F935F936F937F931D
:1015F0008F939F93AF93BF93EF93FF93E091450138
:10160000F09146010995FF91EF91BF91AF919F91A4
:101610008F917F916F915F914F913F912F910F909B
:101620000BBE0F900FBE0F901F9018951F920F9238
:101630000FB60F9211240BB60F922F933F934F9337
:101640005F936F937F938F939F93AF93BF93EF932A
:10165000FF93E0914301F09144010995FF91EF91CF
:10166000BF91AF919F918F917F916F915F914F91BA
:101670003F912F910F900BBE0F900FBE0F901F90B8
:1016800018951F920F920FB60F9211240BB60F925E
:101690002F933F934F935F936F937F938F939F937A
:1016A000AF93BF93EF93FF93E0914101F09142011B
:1016B0000995FF91EF91BF91AF919F918F917F918C
:1016C0006F915F914F913F912F910F900BBE0F90B3
:1016D0000FBE0F901F9018951F920F920FB60F928A
:1016E00011240BB60F922F933F934F935F936F93F9
:1016F0007F938F939F93AF93BF93EF93FF93E0916B
:101700003F01F09140010995FF91EF91BF91AF9199
:101710009F918F917F916F915F914F913F912F9109
:101720000F900BBE0F900FBE0F901F9018951F9239
:101730000F920FB60F9211240BB60F922F933F9377
:101740004F935F936F937F938F939F93AF93BF93C9
:10175000EF93FF93E0913D01F0913E010995FF91D8
:10176000EF91BF91AF919F918F917F916F915F9119
:101770004F913F912F910F900BBE0F900FBE0F9086
:101780001F9018951F920F920FB60F9211240BB64F
:101790000F922F933F934F935F936F937F938F930A
:1017A0009F93AF93BF93EF93FF93E0913B01F09131
:1017B0003C010995FF91EF91BF91AF919F918F915E
:1017C0007F916F915F914F913F912F910F900BBE41
:1017D0000F900FBE0F901F9018951F920F920FB68B
:1017E0000F9211240BB60F922F933F934F935F9359
:1017F0006F937F938F939F93AF93BF93EF93FF93D9
:10180000E0913901F0913A010995FF91EF91BF9173
:10181000AF919F918F917F916F915F914F913F9188
:101820002F910F900BBE0F900FBE0F901F90189529
:101830001F920F920FB60F9211240BB60F922F9397
:101840003F934F935F936F937F938F939F93AF9348
:10185000BF93EF93FF9380917100887F803609F4E6
:101860004DC008F040C0883209F4A9C028F5803185
:1018700009F49DC0C8F4882309F407C1883009F42D
:1018800096C0FF91EF91BF91AF919F918F917F9102
:101890006F915F914F913F912F910F900BBE0F90E1
:1018A0000FBE0F901F901895883109F488C08032C0
:1018B00041F780936D0214C0803409F4A5C040F450
:1018C0008033B9F38833E9F680936D0285ECBCC0B0
:1018D000803509F489C0883509F49EC0883489F6BA
:1018E0000E947902CECF883909F494C038F5883740
:1018F00029F050F4883611F0803719F683E0809390
:101900006F021092060257C0883809F483C08039EC
:1019100019F0803809F0B5CF80910602803208F0C6
:1019200079C0E091060281E08E0F809306028091DB
:101930007300F0E0EA51FE4F80833DC0803B39F0F8
:10194000E0F4803A09F485C0883A09F09ACF84E03F
:1019500080936F021092E5011092E401E09125025C
:10196000F091260209958091E40181110FC081E078
:101970008093E4011092C40109C0803C09F4A6CF11
:10198000883C09F4A3CF883B09F07BCFE091E501C7
:1019900081E08E0F8093E501F0E0EC53FE4F8081F3
:1019A000809373009091E5018091E40131C08091B2
:1019B00068028093730085EC8093740062CF9091ED
:1019C0006A02809169029817B8F580916B02909134
:1019D0006C02E0916A0221E02E0F20936A02E80F68
:1019E000F92FF11D8081E5CF20916B0230916C02BF
:1019F000E0916A0281E08E0F80936A028091730009
:101A0000E20FF32FF11D808390916A0280916902A9
:101A1000981788F285E8D0CF20916B0230916C0244
:101A2000E0916A0281E08E0F80936A0280917300D8
:101A3000E20FF32FF11D808380916E02811150CF50
:101A400081E08093670284EA8093740010926F02B1
:101A500018CF85EC8093740010926F02809106027B
:101A6000803230F4E0910602F0E0EA51FE4F10823D
:101A70006091060270E0E0912302F091240286EE6C
:101A800091E0099510920602FCCE10926D0228CFCB
:101A90001F920F920FB60F9211240BB60F92EF9276
:101AA000FF920F931F932F933F934F935F936F93E7
:101AB0007F938F939F93AF93BF93CF93DF93EF93D6
:101AC000FF930FB6F894A89581B5886181BD11BCCC
:101AD0000FBE789485B78F7D85BF1092A301C1E0BA
:101AE000D1E0D0937002C0939202109271021092D2
:101AF00093020E946901811105C08091A3018F5F4B
:101B00008093A301CF5FCF3761F78091A1019091BE
:101B1000A201009731F00E94FA0F1092A2011092D8
:101B2000A101D091A301DD2371F161E070E08D2F5F
:101B300090E00E94420F7C019093A2018093A1014A
:101B400010E0C1E001E000937002C0939202109295
:101B50007102109293020E946901811105C0F70180
:101B6000E10FF11DC0831F5FCF5FCF3761F7D23028
:101B700050F080918A00887F80938A0080917D0058
:101B80008B7F80937D00109288001092890085B72A
:101B9000806285BFFF91EF91DF91CF91BF91AF91AF
:101BA0009F918F917F916F915F914F913F912F9175
:101BB0001F910F91FF90EF900F900BBE0F900FBEF3
:101BC0000F901F9018951F920F920FB60F9211242D
:101BD0000BB60F922F933F934F935F936F937F9327
:101BE0008F939F93AF93BF93CF93DF93EF93FF9325
:101BF0007894CFE4D1E0E991F991808187FF08C022
:101C00008F772091A0019181921720F10E941905F0
:101C100081E0C738D80779F786E984BD8091A001B3
:101C20008F5F8032D1F08093A001FF91EF91DF911F
:101C3000CF91BF91AF919F918F917F916F915F9164
:101C40004F913F912F910F900BBE0F900FBE0F90B1
:101C50001F9018950E945104DBCF1092A001E5CF90
:101C6000E4E9F2E01382128288EE93E0A0E0B0E0B3
:101C700084839583A683B7838BE891E091838083E7
:101C80000895789483B78C6483BF87B7816087BFDA
:101C900082E08EBD8EB581608EBD8FB581608FBDB7
:101CA00085B5846085BD85B5806485BD80918A00D9
:101CB000836080938A0080918B00816080938B0089
:101CC00087E886B91AB80FB6F894A89581B58861E7
:101CD00081BD11BC0FBE1ABA17BA14BA11BA12B824
:101CE0001092610010926400EFE0F2E02491EAEDBE
:101CF000F1E08491882399F090E0880F991FFC010E
:101D0000E754FE4FA591B491FC01E753FE4F859136
:101D100094918FB7F894EC91E22BEC938FBF81E014
:101D20000E94C101109228021092270210927102A3
:101D30001092930210926F0281E080936E021092D3
:101D4000670283E10E94C10182E10E94C10180918A
:101D500071008C7F8093710088E48093700085E42B
:101D6000809374008BE392E0909326028093250287
:101D700087E492E0909324028093230282E0809390
:101D800072008CE08093700088EB97E090932A02B9
:101D90008093290289E293E090932C0280932B0296
:101DA000BC9ABB9ABA9AB89A8E9A8D9A8C9A80915C
:101DB00064008061809364008091640088608093F7
:101DC0006400BF9A8091610084608093610080917B
:101DD00061008260809361008091610081608093E6
:101DE0006100809161008064809361008F9A80918E
:101DF00064008160809364008091640082608093BD
:101E00006400A09AA19AA29ABD9A80916100806113
:101E10008093610080916100806280936100809175
:101E20006400846080936400A79AA69ABE9AA39ADD
:101E3000C0E0CF5F8C2F0E941905CC31D1F7FFCFC6
:101E4000E199FECF9FBB8EBBE09A99278DB3089591
:101E5000262FE199FECF9FBB8EBBE09A01970DB272
:101E6000021631F02DBB0FB6F894E29AE19A0FBE3C
:101E70000895EE0FFF1F0024001C0BBE0790F69183
:101E8000E02D09940F931F93CF93DF93869F8001DA
:101E9000879F100D969F100D1124C8010E945E0FA0
:101EA000EC01009729F0A80170E060E00E94831027
:101EB000CE01DF91CF911F910F9108950F931F9342
:101EC000CF93DF938230910510F482E090E0E091AF
:101ED000A202F091A30230E020E0B0E0A0E0309751
:101EE00099F42115310509F44AC0281B390B243017
:101EF0003105D8F58A819B816115710589F1FB0156
:101F000093838283FE0111C040815181028113813C
:101F100048175907E0F04817590799F4109761F0EE
:101F200012960C93129713961C933296CF01DF9161
:101F3000CF911F910F9108950093A2021093A302D5
:101F4000F4CF2115310551F04217530738F0A9019C
:101F5000DB019A01BD01DF01F801C1CFEF01F9CF2B
:101F60009093A3028093A202CDCFFE01E20FF31F54
:101F7000819391932250310939832883D7CF2091BF
:101F8000A0023091A102232B41F420914B0130910A
:101F90004C013093A1022093A0022091490130917D
:101FA0004A012115310541F42DB73EB740914D014D
:101FB00050914E01241B350BE091A002F091A1023B
:101FC000E217F307A0F42E1B3F0B2817390778F010
:101FD000AC014E5F5F4F2417350748F04E0F5F1F6F
:101FE0005093A1024093A002819391939FCFF0E080
:101FF000E0E09CCFCF93DF930097E9F0FC013297AC
:1020000013821282A091A202B091A302ED0130E0EE
:1020100020E01097A1F420813181820F931F20913D
:10202000A0023091A1022817390709F061C0F0938E
:10203000A102E093A002DF91CF910895EA01CE17AB
:10204000DF07E8F54A815B819E0141155105B1F733
:10205000E901FB83EA8349915991C40FD51FEC171D
:10206000FD0761F4808191810296840F951FE9013B
:1020700099838883828193819B838A83F0E0E0E067
:1020800012968D919C9113970097B9F52D913C91E3
:102090001197CD010296820F931F2091A0023091DB
:1020A000A1022817390739F6309751F51092A3028B
:1020B0001092A202B093A102A093A002BCCFD3833E
:1020C000C28340815181840F951FC817D90761F4DD
:1020D0004E5F5F4F88819981480F591F518340831C
:1020E0008A819B81938382832115310509F0B0CFCA
:1020F000F093A302E093A2029ECFFD01DC01C0CFCA
:1021000013821282D7CFDC0101C06D934150504041
:08211000E0F70895F894FFCFF9
:102118001CFF1BFF1AFF19FF18FF17FF16FF15FFFB
:1021280014FF13FF12FF11FF10FF0FFF0EFF0DFF2B
:102138000CFF0BFF0AFF09FF08FF07FF06FF05FF5B
:1021480004FF03FF02FF01FF01710200000000000D
:102158000000000000000000000000A4028000361B
:10216800013401320130012E012C012A01280126F7
:10217800012401220120011E011C011A0118011667
:10218800011401120110010E010C010A01080106D7
:102198000104010201000100000000FA02CD024121
:0A21A80003AA027202BA02AB0200A1
:00000001FF
