:100000000C946D010C94B0110C9485110C945A1140
:100010000C942F110C9404110C94D9100C94AE1064
:100020000C9483100C9497010C94A6130C949701D4
:100030000C9497010C9497010C9497010C949701E0
:100040000C9439100C9497010C9497010C9497011F
:100050000C9497010C9497010C9497010C949701C0
:100060000C9497010C9497010C9497010C949701B0
:100070000C9497010C940B130C9497010C9497011A
:100080000C9497010C94DB110C9497014003000031
:10009000000000120D0000000000000101C08000FF
:1000A000000000000000000000060000000000004A
:1000B0000000000000000000000000000000000040
:1000C000000000000000FF1F001E000000000000F4
:1000D0000000000000000000000000000000000020
:1000E0000000000000000000000000000000000010
:1000F00000000000000000000000000002001400EA
:10010000030014000400140005001400060014008D
:100110000700140008001400090014000A0014006D
:100120000B0014000C0010000D0010000E00100059
:100130000F0010001000100011001000120010003D
:100140001300100014001000150010001600140019
:10015000010014000100140001001400010014004B
:100160000100140000801F0000811F00FF0000003C
:10017000FF000000FF000000FF000000FF00000083
:10018000FF000000FF000000FF000000FF00000073
:10019000FF000000FF000000FF0000000000000062
:1001A000000000000000000000000000000000004F
:1001B0000000000000000000007000740078007C67
:1001C000008000840088008C009000940098009CBF
:1001D00000A000A400A800AC00B000B400B800BCAF
:1001E00000C000C400C800CC00D000D400D800DC9F
:1001F00000E000E400E800EC00F000F400F800FC8F
:10020000000001040108010C0100003A003700342D
:100210000031002200610064000000390036003324
:1002200000300021002000630000003B0038003552
:10023000003200230062006500050505050505057F
:100240000502020202020202020707040404040477
:100250000404040707030303030303030307010163
:100260000101010101010606060606060606010255
:10027000040810204080010204081020408008106B
:10028000010204081020408001020102040810202D
:10029000408004804020100804020101020408107C
:1002A0002040800000000A0B0C000000000000014C
:1002B000040506000000000000000000000000002F
:1002C000000000000000000000000000000000002E
:1002D0000000000000000000F31311241FBECFEF48
:1002E000D0E1DEBFCDBF11E0A0E0B1E0E0E9F1E494
:1002F00000E00BBF02C007900D92AA39B107D9F7F1
:1003000024E0AAE9B1E001C01D92AF3CB207E1F7D9
:1003100011E0CDE6D1E004C02197FE010E94541FF8
:10032000CC36D107C9F70E9404140C94C6200C9453
:1003300000009091B60481E0913208F043C08091B2
:1003400092048111FCCF8091B50422E020939204A5
:1003500021E0209391042FEF2093900425E934E0CD
:1003600030938F0420938E0410928D0490938C040C
:1003700010928B0490918B04880F892B80938B04AF
:1003800080918A04813029F510928A0480918B042F
:10039000809373008091740083FDF8CF85EC809387
:1003A0007400809192048230E1F3809190048F3F39
:1003B00091F080919004803281F08091900480339C
:1003C00071F084E0109294041092B6041092930499
:1003D000089585EEE4CF80E0F5CF82E0F3CF83E0AF
:1003E000F1CF90E0FC01ED55FD4F2491FC01E25965
:1003F000FD4F3491875C9D4FFC018491882341F12E
:100400002223C1F021502C30A8F4E22FF0E0E55F68
:10041000FD4F0C94541F410241021A021702290297
:100420002C022F021A021A02330239023D029FB532
:100430009F779FBDE82FF0E0EE0FFF1FE75DFD4FB8
:10044000A591B4918FB7F894EC913E2B3C938FBF5C
:1004500008959FB59F7DEDCF9FB5977FEACF95B566
:100460009F7D95BDE7CF90918B009F7790938B00F8
:10047000E1CF90918B009F7DF9CF90918B00977F7A
:10048000F5CF93B79F7D93BFD5CFE82FF0E0E2592A
:10049000FB4F8085861739F06087618B80917004EF
:1004A0008360809370040895262F30E09091740447
:1004B0009078691729F0909170049C609093700473
:1004C0003695322F222737952795822B80937404F7
:1004D000809375040895E0914B02F0914C0230979F
:1004E00029F0109294041092B60409940895CF93C1
:1004F000DF93AC01E0914902F0914A023097F1F0AC
:1005000090914802809147029817C0F090E0292FFF
:1005100030E02617370754F4D901A755BE4F240FF2
:10052000351FE90128812C939F5FF1CF109248027B
:1005300060934702CB01DF91CF910994DF91CF9176
:100540000895CF93DF9390E0FC01E259FD4F249191
:10055000875C9D4FFC0184918823C9F090E0880F4F
:10056000991FFC01E75FFD4FA591B491FC01E75D88
:10057000FD4FC591D49161110DC09FB7F8948C9136
:10058000209582238C938881282328839FBFDF9125
:10059000CF910895623051F49FB7F8943C91822F27
:1005A000809583238C93E8812E2BEFCF8FB7F8941F
:1005B000EC912E2B2C938FBFEACF3FB7F89480910C
:1005C0003F0290914002A0914102B091420222B7B5
:1005D00006B600FE05C02F3F19F00196A11DB11D02
:1005E0003FBFBA2FA92F982F8827BC01CD01620FDA
:1005F000711D811D911D42E0660F771F881F991F95
:100600004A95D1F70895883008F5E82FF0E0EE0F0D
:10061000FF1FE75CFE4F718360838150873068F471
:10062000E82FF0E0EA5EFC4F0C94541F27033403DC
:1006300042035003570362036E0380916A008C7F6C
:10064000482B40936A0089B7816089BF08958091E3
:100650006A00837F440F551F440F551F482B40935A
:100660006A0089B78260F1CF80916A008F7C74E064
:10067000440F551F7A95E1F7482B40936A0089B7DC
:100680008460E3CF80916A008F7366E0440F551F4A
:100690006A95E1F7482B40936A0089B78860D5CF07
:1006A0008AB78C7F482B4ABF89B78061CECF8AB783
:1006B000837F440F551F440F551F482B4ABF89B7EE
:1006C0008062C3CF8AB78F7C24E0440F551F2A95E0
:1006D000E1F7482B4ABF89B78064B7CF8AB78F73D9
:1006E00096E0440F551F9A95E1F7482B4ABF89B70A
:1006F0008068ABCFFF920F931F93CF93DF930E943D
:10070000DD022091A7013091A801EB01C21BD30BA0
:100710002091510230915202C217D30708F461C0F0
:1007200040915B0250915C024130510561F0E091D3
:100730008402F0918502208130918602232330913A
:100740004F0223134EC07093A8016093A70100913C
:100750005302109154024230510509F419C143303B
:10076000510509F454C14130510561F48091A6014D
:10077000813009F449C0D8F1833009F486C084304F
:1007800009F4CFC080915B0290915C02019749F11E
:10079000C017D10708F073C18091A4018F5F8093C7
:1007A000A4018B30F0F081E090E090935C028093A4
:1007B0005B0241E050E06AE773E0809182020E94B0
:1007C000030310924F021092A60182E590E09093ED
:1007D00054028093530283E290E0909352028093FC
:1007E0005102DF91CF911F910F91FF900895C01793
:1007F000D10730F481E08093A601C093A501C2CF58
:1008000084E08093A601BECFC017D107E0F5109217
:10081000A6018091A4018F5F8093A4012091A5017E
:100820008C2F0C2E000C990B821B910927FD9395A0
:1008300097FF03C0919581959109499794F2109281
:100840005C0210925B0282E990E0909354028093E4
:10085000530282E590E090935202809351021092ED
:10086000A401F09050024F2D50E06AE773E08091B0
:1008700082020E9403038091860293E0F91229C04C
:1008800080934F027FCF83E0BCCFC017D10718F50C
:1008900010925C0210925B0282E990E09093540205
:1008A0008093530282E590E090935202809351022C
:1008B0001092A401F09050024F2D50E06AE773E0CF
:1008C000809182020E9403038091860233E0F31636
:1008D000B9F280E0D5CF90915002933009F482E0D4
:1008E0008093500282E090E090935C0280935B02E0
:1008F00082E990E0909354028093530282E590E065
:100900009093520280935102109261028091A4014F
:100910008093620210925E021092600210925F0257
:10092000C9CFC017D107A8F410925C0210925B02E5
:1009300082E990E0909354028093530282E590E024
:1009400090935202809351021092A40110925E0281
:1009500088CF82E090E090935C0280935B0282E912
:1009600090E0909354028093530282E590E090933C
:10097000520280935102109261028091A4018093EF
:10098000620210925E021092600210925F0269CFC2
:1009900090915E029F5F90935E0280915F02880F4C
:1009A000C017D107E0F080935F02983009F0F0CED5
:1009B000E0916102E630A9F410925C0210925B02B1
:1009C00082E990E0909354028093530282E590E094
:1009D000909352028093510210925E02D3CE8160B6
:1009E000E2CF83E090E090935C0280935B02909171
:1009F0005F0281E08E0F80936102F0E0E55AFD4FC7
:100A0000908780916002892780936002BBCEC017D7
:100A1000D10728F510925C0210925B0210925E02E0
:100A200082E990E0909354028093530282E590E033
:100A30009093520280935102809160028111ACCE5A
:100A400088E0E1E6F2E0A9E6B2E001900D928A9535
:100A5000E1F781E080935D021092A40193CE809132
:100A60006102863009F4A8CF82E090E090935C02A6
:100A700080935B0210925E0210925F0283CE10920E
:100A8000A401AFCE0895DC011496ED91FC91159769
:100A9000908111968C918095892380830895CF93BE
:100AA000DF93DC01EC91F0E0EE0FFF1FE75EFD4FFE
:100AB000C591D491988111968C91982381E009F485
:100AC00080E0DF91CF910895DC011296ED91FC91C9
:100AD000139711969C911197808161110EC090958A
:100AE000982390831496ED91FC911597908111961F
:100AF0008C918095892380830895982B9083089505
:100B00008091470290914802891B990B089585EDC9
:100B1000809374008091740084FDFCCF1092920445
:100B200008952091E901260F3327331F2132310523
:100B3000ECF420919204FC0190E080E0243069F014
:100B400082E00895A091E9012191AC0147535E4FE5
:100B5000A40FB52FB11D2C930196861798F38091A1
:100B6000E901680F6093E90180E0089581E008954C
:100B70000895E091480280914702E81730F4F0E0D0
:100B8000E755FE4F808190E008958FEF9FEF089525
:100B900090914802809147022FEF3FEF981748F459
:100BA000E92FF0E0E755FE4F208130E09F5F909302
:100BB0004802C9010895CF92DF92EF92FF920F93FE
:100BC0001F93CF93DF937C01CB018A012091930483
:100BD000222389F0EB016B01C40ED51ECC15DD0577
:100BE00069F06991D701ED91FC910190F081E02DC0
:100BF000C7010995F3CF642F0E949105C801DF91C9
:100C0000CF911F910F91FF90EF90DF90CF900895BB
:100C1000CF93DF931F92CDB7DEB769832091930402
:100C20002223F9F02091B604203258F021E030E080
:100C3000FC013383228390E080E00F90DF91CF911D
:100C4000089580919404E82FF0E0EB56FB4F9981D2
:100C500090838F5F809394048093B60481E090E04A
:100C6000ECCF61E0CE0101960E949105F7CF1F9372
:100C7000CF93DF93C0E2D2E01881698187EB94E0E3
:100C80000E940806612F87EB94E00E9408066A81A3
:100C900087EB94E0DF91CF911F910C94080690E0D0
:100CA00080E0089580E090E0892B29F080918A020D
:100CB00083FD0C9400000895009731F16091710458
:100CC000709172048617970709F06DC041504A3041
:100CD000D8F4E42FF0E0E159F94F0C94541F790651
:100CE00085069006A006A706AE06B506BC06C30696
:100CF000CB0680917604281739F0209376048091F2
:100D0000700481608093700408959091770480EF5F
:100D1000820F292B28239217B9F320937704EFCF62
:100D20003091770440E1249FC0011124832B229548
:100D3000207F215F8223381739F380937704DFCF38
:100D400080917804281701F320937804D8CF8091FC
:100D500079042817C9F220937904D1CF80917A04BD
:100D6000281791F220937A04CACF80917B04281728
:100D700059F220937B04C3CF80917C04281721F281
:100D800020937C04BCCF80917D04281709F4BCCF4C
:100D900020937D04B4CF80917E04281709F4B4CF4A
:100DA00020937E04ACCF309173043F773817190637
:100DB00009F0AACF4230A1F018F4413031F0089583
:100DC0004330D1F0443049F1089580917F042817D1
:100DD00009F49ACF20937F0480917004826092CFAF
:100DE0009091800480EF820F292B2823921709F419
:100DF0008BCF20938004F0CF3091800440E1249F7A
:100E0000C0011124832B2295207F215F8223381774
:100E100009F47ACF80938004DFCF80918104281772
:100E200009F472CF20938104D7CF0F93009721F15B
:100E300060917104709172048617970729F5822FCB
:100E400090E0309174043078231729F020917004D9
:100E50002460209370040D3189F00F3779F00F3042
:100E600081F49C013695322F222737952795809162
:100E70007404822B809374040F910895409374043A
:100E8000F0CF10927404EDCF309173043F77381790
:100E9000190691F7822F90E030917504307823176E
:100EA00029F0209170042860209370049695982F63
:100EB000882797958795482B40937504DDCF8150FF
:100EC0008C3108F073C0E82FF0E0E759F84F0C942C
:100ED000541F8507870789078B078D078F079107A1
:100EE000930799079D079F07A507A907AD07B107B6
:100EF000B307B707BB07BD07BF07C107C307C707CE
:100F0000CB07CF07D107D307D507C4980895C39857
:100F10000895C2980895C098089596980895959850
:100F2000089594980895809165008F7E8093650060
:100F3000089580916500877FF9CFC79808958091C3
:100F400062008B7F809362000895809162008D7FA4
:100F5000F9CF809162008E7FF5CF809162008F7B08
:100F6000F1CF97980895809165008E7FDFCF8091B3
:100F700065008D7FDBCFA8980895A9980895AA9859
:100F80000895C5980895809162008F7EDBCF80918F
:100F900062008F7DD7CF809165008B7FC7CFAF98E0
:100FA0000895AE980895C6980895AB9808951F9334
:100FB000CF93DF93EC018A819B8110E0892BE9F4C8
:100FC0008D819E8110E0892B69F588818E7F8883D1
:100FD000DF91CF911F910895812F90E0880F991F85
:100FE000EA81FB81E80FF91F0190F081E02D8081FB
:100FF0008F7780830E945F071F5F8981181760F3D6
:10100000DFCF812F90E0880F991FED81FE81E80FDF
:10101000F91F0190F081E02D80818F7780830E94FD
:101020005F071F5F8C81181760F3CFCFFC019081A1
:101030009570953019F4CF010C94D7070895FC01F1
:10104000208120FF03C022FF0C94D7070895815010
:101050008C3108F073C0E82FF0E0EF5CF74F0C9490
:10106000541F4D084F085108530855085708590890
:101070005B086108650867086D08710875087908DC
:101080007B087F0883088508870889088B088F08F4
:101090009308970899089B089D08C49A0895C39AD5
:1010A0000895C29A0895C09A0895969A0895959AB7
:1010B0000895949A089580916500806180936500F9
:1010C0000895809165008860F9CFC79A089580914E
:1010D0006200846080936200089580916200826063
:1010E000F9CF809162008160F5CF809162008064C9
:1010F000F1CF979A0895809165008160DFCF80914C
:1011000065008260DBCFA89A0895A99A0895AA9AEB
:101110000895C59A0895809162008061DBCF809127
:1011200062008062D7CF809165008460C7CFAF9A9C
:101130000895AE9A0895C69A0895AB9A089590912D
:101140007004882361F090619093700481E00E94A4
:10115000270880918A00887F80938A0008959F7E67
:101160009093700481E00E945F07109288001092B3
:10117000890080918A008460EFCFCF93C82F80913F
:1011800073028C1719F08C2F0E949F08C093730272
:10119000CC23F9F02FB7F894809157029091580220
:1011A000A0915902B0915A022FBF482F392F2A2FF0
:1011B0008B2F4093740230937502209376028093B4
:1011C0007702809173028C1749F08C2FCF910C9489
:1011D0009F0840E030E020E080E0EBCFCF91089521
:1011E0000F931F93CF938C01C0E0F8018181C81742
:1011F00020F0CF911F910F9108958C2F90E0880FD0
:10120000991FD8011296ED91FC91E80FF91F0190FA
:10121000F081E02D8081982F906890838F770E94D5
:101220002708CF5FE2CF1F93CF93DF93EC01288194
:1012300020FD15C022FF13C0322F3160388321FFFB
:1012400009C02A813B81232B51F0DF91CF911F915F
:101250000C94F0082D813E8110E0232BB9F4DF912E
:10126000CF911F910895812F90E0880F991FED81F4
:10127000FE81E80FF91F0190F081E02D8081982F09
:10128000906890838F770E9427081F5F8C811817C2
:1012900050F3E5CFCF93DF93EC018881982F9270C4
:1012A000691789F0662369F082608883888180FFEE
:1012B0000AC0CE010E941608CE01DF91CF910C9496
:1012C00013098D7FF2CFDF91CF9108951F93CF93B4
:1012D000DF93EC012881322F357099F4322F316081
:1012E000388321FF09C02A813B81232B51F0DF91F4
:1012F000CF911F910C94F0082D813E8110E0232B9B
:10130000B9F4DF91CF911F910895812F90E0880F5C
:10131000991FED81FE81E80FF91F0190F081E02D0A
:101320008081982F906890838F770E9427081F5F95
:101330008C81181750F3E5CFCF93DF93EC018881B0
:10134000982F9270691789F0662369F0826088830C
:10135000888180FF0AC0CE010E941F08CE01DF9164
:10136000CF910C9466098D7FF2CFDF91CF910895D4
:10137000AD9A8FE79EE30197F1F700C00000AD98AA
:1013800008950C94B8091F93CF93DF93EC018091DB
:10139000700484FF0BC08FE090E00E941A1F182F8A
:1013A00080E190E00E941A1F181306C0CE01DF9161
:1013B000CF911F910C941A1FFFCF0C94C309CF93A8
:1013C000DF9320918702309188022F3F320721F06E
:1013D000C901DF91CF91089580918A0287FF2BC0C8
:1013E00086FF0FC089E090E00E94DD09C82F81E0F0
:1013F00090E00E94DD099C2F9093880280938702E1
:1014000015C089E090E00E94DD09C82F81E090E0DE
:101410000E94DD0990E4C99F90011124207C317065
:101420008F73282B30938802209387028091870244
:1014300090918802CECF85FF0CC081E190E00E94A0
:10144000DD09C82F82E190E00E94DD09C05CDD0B60
:10145000D2CF81E090E00E94DD0990E0CDCFCF9324
:10146000863823E0920719F138F4813823E0920797
:10147000D9F0CF910C941A1F873823E09207D1F04E
:10148000883823E09207A9F786E893E00E941A1FA4
:10149000C82F87E893E00E941A1F90E02FEFC29FA9
:1014A000800D911D1124E5CF81E893E0E2CF86E81D
:1014B00093E0DFCF87E893E0DCCF0E94BD08E1E74F
:1014C000F2E081E087831086EAE7F2E088E0DF015E
:1014D0001D928A95E9F708950F931F93CF93DF9399
:1014E000EC01162FC63883E0D80781F150F4C138DB
:1014F00083E0D807F9F0612FCE010E94221FCE01B0
:101500001FC0C73883E0D80741F1C83883E0D80747
:1015100091F786E893E00E941A1F082F87E893E06E
:101520000E941A1FC82FD0E08FEF089FC00DD11D59
:101530001124E1CF81E893E00E94221F81E893E02B
:10154000DF91CF911F910F910C941A1F86E893E0C1
:101550000E94221F86E893E0F3CF87E893E00E9481
:10156000221F87E893E0ECCFCF93DF93D0E0C0E079
:10157000FE01E457FF4F6491CE010E94221F219685
:10158000CD3281E0D807A1F761E081E893E00E94C5
:10159000221FC0E0CF5F8C2F0E942708CC31D1F7EB
:1015A000DF91CF9108950C94B40A1F93CF93DF93EA
:1015B000209138012223C1F02FEF3FEF30930F022B
:1015C00020930E02309313022093120230931702DD
:1015D0002093160230931B0220931A0230931F02AD
:1015E00020931E021092380182309105C9F0833099
:1015F000910509F458C020E030E0232B11F00E943F
:1016000000008091470290914802891B990B18169F
:1016100019060CF044C087EB94E00E94C805F1CF96
:10162000ECE0F2E0D0E0C0E0828193810196E9F441
:10163000CC0FDD1FCC0FDD1FC45FDD4F1B821A8274
:1016400087EB94E00E94C805888387EB94E00E94B2
:10165000C8058983E0915502F09156023097C9F48C
:10166000D0935602C09355021AC021963496C530C5
:10167000D105D1F68091470290914802891B990BC0
:101680001816190664F487EB94E00E94C805F2CF9F
:10169000FC01828193810097D9F7D383C283DF91C4
:1016A000CF911F91089587EB94E00E94C805182FF1
:1016B00087EB94E00E94C805D12F90E0C92FC80F96
:1016C000D11DD0932102C093200287EB94E00E94A9
:1016D000C805682F80932202CE01D7FF21C09F77D3
:1016E00090932102809320028830910561F0843824
:1016F00023E0920741F08C3A23E0920721F0843DE9
:1017000023E0920741F481E8683039F4DF91CF910A
:101710001F910C94B40A0E946C0A80932202BFCFDE
:101720000E942F0AFACF1F93CF93DF93EC01162F5D
:10173000089779F4662319F10E94B40A80E090E0DA
:10174000892BB9F0612FCE01DF91CF911F910C94BD
:10175000000080E090E0892BA9F781E0C11590E1BD
:10176000D90708F080E0111105C0DF91CF911F91DA
:10177000089581E027972297C0F780E0F6CF80E0B8
:1017800090E0892BF9F681E0F0CF0F931F93CF9370
:10179000DF93EC01162F8091700484FF25C0CF30B9
:1017A000D10561F48FE090E00E94221F8FE090E06D
:1017B000DF91CF911F910F910C941A1F8FE090E051
:1017C0000E941A1F082F80E190E00E941A1F081340
:1017D0000AC0C730D10531F0C830D10529F418301E
:1017E00049F0FFCFFFCFFFCF612FCE010E94221F14
:1017F000CE01DECF0E94B40A88E0DF91CF911F9125
:101800000F9108958331910588F48131910530F469
:101810008130910519F08930910531F42FEF3FEFB8
:1018200030938802209387020C94C50B8D3191056B
:10183000D9F7677F60938A02209171022F73362F48
:10184000307C232B20937102E9CFBF92CF92DF929D
:10185000EF92FF920F931F93CF93DF938B01B42EE0
:10186000690182FF23C083FF17C061E0C8010E94A5
:10187000930B8823D9F16B2DC8010E94020C8B11A8
:1018800035C0F601DF91CF911F910F91FF90EF903E
:10189000DF90CF90BF90099460E0C8010E94930B45
:1018A000882321F1C8010E94DD09E9CF842F8770C8
:1018B000C1E0D0E07E0101C0EE0C8A95EAF7D42F9A
:1018C000D870CB010E94DD09C82FB4FE1CC061E0B6
:1018D000C8010E94930B882349F0DD2389F0CE29AB
:1018E0006C2FC8010E94020C8C1759F2DF91CF9126
:1018F0001F910F91FF90EF90DF90CF90BF900895D0
:10190000E094CE21EDCF60E0C8010E94930B8823C4
:1019100069F3CE21DD2319F0C111B3CFE7CFCC237A
:1019200009F4AFCFE3CFAF92BF92DF92EF92FF9275
:101930000F931F93CF93DF937C01162FC42FD22ECA
:10194000D42FD07E8091710287FF2CC0D03EC1F58C
:10195000A0907202AA20A1F1B12CC5010E94DD095C
:10196000D82FC50101960E94DD09982F8D2FE8160A
:10197000F90631F56C2F70E0762F662766277370B5
:101980006D296F5F7F4F22E536E0402F8C2FDF916E
:10199000CF911F910F91FF90EF90DF90BF90AF908C
:1019A0000C94250C80FD33C0D03609F464C090F44B
:1019B000D03209F449C0D03409F45DC0DD2381F18F
:1019C000DF91CF911F910F91FF90EF90DF90BF902B
:1019D000AF900895D03A09F484C090F42C2F2F7161
:1019E00041E0D03869F7612FC701DF91CF911F9196
:1019F0000F91FF90EF90DF90BF90AF900C945C063A
:101A0000D03C09F475C0D03E09F4B4CFD9CF0E94C0
:101A1000DF098E159F0541F2E114F10429F2D0CFC0
:101A20008C2F8E7069F680E090E0892B49F28C2F24
:101A30008170DF91CF911F910F91FF90EF90DF9018
:101A4000BF90AF900C940000CF71CF3109F0B8CFA8
:101A50004D2D4F7761F0413061F02D2D221F22274F
:101A6000221F0DE1612FC7010E941507A9CF41E098
:101A7000F4CF40E0F2CF2C2F30E08C2F8F718130EB
:101A800029F030F0803121F0813109F540E001C0CA
:101A900041E095E0359527959A95E1F721700DE1A4
:101AA000612FC7010E94150780E090E0892B09F49F
:101AB00087CF4C2F612FC701DF91CF911F910F91DD
:101AC000FF90EF90DF90BF90AF900C940000C901A1
:101AD000880F991F8E71C4FB442740F9482B425050
:101AE000D8CF2C2F2F7043E0C4FF7DCF42E07BCFB7
:101AF000CF71CE3131F0CF3109F062CF2D2D45E0DD
:101B000072CF2D2D44E06FCF4F925F926F927F92F4
:101B10008F929F92AF92BF92CF92DF92EF92FF92FD
:101B20000F931F93CF93DF93C0914D02D0914E023C
:101B300080913602811116C02FB7F8948091570218
:101B400090915802A0915902B0915A022FBF8093F0
:101B5000320290933302A0933402B093350281E0B5
:101B60008093360280912A02811111C00E94DD0209
:101B700064517109810991096093260270932702CB
:101B8000809328029093290281E080932A020E9488
:101B9000DD022B013C018FB7F894C0905702D09022
:101BA0005802E0905902F0905A028FBF80913202A1
:101BB000BC2CB81A80912602909127029201281B12
:101BC000390BC90120912502211169C0FE0130E0C5
:101BD00020E045815681C417D50709F056C045E07D
:101BE000429F8001439F100D11240E5F1F4F0C0F69
:101BF0001D1F10932402009323020115110509F4FF
:101C000058C0F801148213828431910508F496C1FA
:101C1000853F914008F0B8C18D8D9E8D0E944F0583
:101C2000F801808381E08093250240922602509241
:101C300027026092280270922902F6E0FB1508F450
:101C400081C18D8D9E8D0E944F05A0902302B09082
:101C5000240290912502E92FE695E695E695292F35
:101C6000277041E050E060E070E004C0440F551F71
:101C7000661F771F2A95D2F7EA0DFB2DF11D811102
:101C800029C040958081482327C02F5F3F4F35965C
:101C90002530310509F09DCF10E000E0AACF26E005
:101CA0002B1508F44FC18431910518F0853F914000
:101CB00040F2DF91CF911F910F91FF90EF90DF9055
:101CC000CF90BF90AF909F908F907F906F905F90DC
:101CD0004F9008958081482B408381E0890F809345
:101CE00025024092260250922702609228027092AA
:101CF0002902982F9770E9F68031E9F4F501808187
:101D0000863780F4EB8DFC8D309721F4BC8EAB8E42
:101D100007C0FC01838194810097D9F7B482A38224
:101D200010922502C0923202D0923302E092340225
:101D3000F0923502BECF8831A9F7F50111811F77E6
:101D40008DEF782E710EF7E2F71580F088818130E3
:101D5000A1F4812E912C1B3261F118F5133049F159
:101D6000143029F1111152C0888124C085ED810FF2
:101D7000883250F48881823061F3E0912302F0913F
:101D80002402D483C383CCCF8DEA810F883220F420
:101D90008881833091F7DDCF8EEF810F8230C8F6D6
:101DA000ECCF133531F0143511F01C3279F58AE09F
:101DB00001C08DE0F501028190819B3769F19F3769
:101DC00009F472C09737C9F60813D7CF61E08D8D3B
:101DD0009E8D0E9464058D8D9E8D0E9443058FE629
:101DE00097E10197F1F700C00000AD8DBE8D14960C
:101DF000ED91FC911597808111969C91892B8083A0
:101E000060E08D8D9E8D0E946405B7CFC4018F5711
:101E10009C4F0E942F0ACECF202F2870302F377072
:101E200004FF35C01D3278F51B3208F0A6CF91E0D3
:101E3000971508F0A2CF41E050E060E070E004C0E8
:101E4000440F551F661F771F3A95D2F7182F142B92
:101E5000211103C0142F10951823612FC4018F572F
:101E60009C4F0E946C0A181388CF61E08D8D9E8D67
:101E70000E9464058D8D9E8D0E944305EFE6F7E17B
:101E80003197F1F7B0CF13551230A8F676CF90E026
:101E900002C0959587953A95E2F7817099272817A2
:101EA000190609F06ACF92CF1B32D9F190F51330A1
:101EB000C1F1143009F461CF602FC4018F579C4FDA
:101EC0000E946C0A08131FC061E08D8D9E8D0E94D8
:101ED00064058D8D9E8D0E9443058FE697E10197E5
:101EE000F1F700C00000AD8DBE8D1496ED91FC9110
:101EF0001597808111969C91892B808360E08D8D50
:101F00009E8D0E946405111138CF043078F4088347
:101F100034CF133531F0143509F42FCF1C3261F66C
:101F20002CCF083081F70E94B40A9FCF61E081E88E
:101F300093E00E946C0A81E088831FCFF6E0FB15D6
:101F400008F0B7CE99E09B1508F0B3CEC0923202EC
:101F5000D0923302E0923402F092350200912302D3
:101F6000109124028D8D9E8D0E944F05F801808373
:101F700081E08093250240922602509227026092CF
:101F800028027092290295CE26E02B15D8F291CE28
:101F90009F92AF92BF92CF92DF92EF92FF920F93F8
:101FA0001F93CF93DF937C016B01942E81E0F701A7
:101FB000481328C0A280B380E7012196A114B10480
:101FC00031F562E070E081E090E00E94711F8C01C9
:101FD000009731F0FC01D182C08288818F5F8883B5
:101FE000F1E09F1242C0F70113830283DF91CF918A
:101FF0001F910F91FF90EF90DF90CF90BF90AF9027
:102000009F900895A580B680E7012496D7CF888158
:102010008F5F8883C82FD0E062E070E0CE010E941D
:10202000711F8C0120E0AE0141505109822F90E0D8
:102030008417950764F0C150D048CC0FDD1FC00F46
:10204000D11FD982C882C5010E942920C9CF880F1B
:10205000991FF501E80FF91F60817181800F911FB1
:10206000FC01718360832F5FE1CFF7011683058345
:10207000BDCF1F920F920FB60F9211242F933F9353
:102080008F939F93AF93BF93809157029091580283
:10209000A0915902B0915A0230913E0223E0230FE1
:1020A0002D3768F126E8230F0296A11DB11D20935C
:1020B0003E028093570290935802A0935902B09326
:1020C0005A0280913F0290914002A0914102B0914A
:1020D00042020196A11DB11D80933F0290934002E0
:1020E000A0934102B0934202BF91AF919F918F9113
:1020F0003F912F910F900FBE0F901F901895019652
:10210000A11DB11DD4CF1F920F920FB60F921124B3
:102110000BB60F922F933F934F935F936F937F93E1
:102120008F939F93AF93BF93EF93FF93E0914701FA
:10213000F09148010995FF91EF91BF91AF919F9167
:102140008F917F916F915F914F913F912F910F9060
:102150000BBE0F900FBE0F901F9018951F920F92FD
:102160000FB60F9211240BB60F922F933F934F93FC
:102170005F936F937F938F939F93AF93BF93EF93EF
:10218000FF93E0914501F09146010995FF91EF9190
:10219000BF91AF919F918F917F916F915F914F917F
:1021A0003F912F910F900BBE0F900FBE0F901F907D
:1021B00018951F920F920FB60F9211240BB60F9223
:1021C0002F933F934F935F936F937F938F939F933F
:1021D000AF93BF93EF93FF93E0914301F0914401DC
:1021E0000995FF91EF91BF91AF919F918F917F9151
:1021F0006F915F914F913F912F910F900BBE0F9078
:102200000FBE0F901F9018951F920F920FB60F924E
:1022100011240BB60F922F933F934F935F936F93BD
:102220007F938F939F93AF93BF93EF93FF93E0912F
:102230004101F09142010995FF91EF91BF91AF915A
:102240009F918F917F916F915F914F913F912F91CE
:102250000F900BBE0F900FBE0F901F9018951F92FE
:102260000F920FB60F9211240BB60F922F933F933C
:102270004F935F936F937F938F939F93AF93BF938E
:10228000EF93FF93E0913F01F09140010995FF9199
:10229000EF91BF91AF919F918F917F916F915F91DE
:1022A0004F913F912F910F900BBE0F900FBE0F904B
:1022B0001F9018951F920F920FB60F9211240BB614
:1022C0000F922F933F934F935F936F937F938F93CF
:1022D0009F93AF93BF93EF93FF93E0913D01F091F4
:1022E0003E010995FF91EF91BF91AF919F918F9121
:1022F0007F916F915F914F913F912F910F900BBE06
:102300000F900FBE0F901F9018951F920F920FB64F
:102310000F9211240BB60F922F933F934F935F931D
:102320006F937F938F939F93AF93BF93EF93FF939D
:10233000E0913B01F0913C010995FF91EF91BF9134
:10234000AF919F918F917F916F915F914F913F914D
:102350002F910F900BBE0F900FBE0F901F901895EE
:102360001F920F920FB60F9211240BB60F922F935C
:102370003F934F935F936F937F938F939F93AF930D
:10238000BF93EF93FF93E0913901F0913A010995E2
:10239000FF91EF91BF91AF919F918F917F916F913D
:1023A0005F914F913F912F910F900BBE0F900FBEF9
:1023B0000F901F9018951F920F920FB60F92112435
:1023C0000BB60F922F933F934F935F936F937F932F
:1023D0008F939F93AF93BF93EF93FF93809171007F
:1023E000887F803609F44DC008F040C0883209F477
:1023F000A9C028F5803109F49DC0C8F4882309F4E8
:1024000007C1883009F496C0FF91EF91BF91AF9159
:102410009F918F917F916F915F914F913F912F91FC
:102420000F900BBE0F900FBE0F901F901895883124
:1024300009F488C0803241F78093900414C080343E
:1024400009F4A5C040F48033B9F38833E9F68093EA
:10245000900485ECBCC0803509F489C0883509F446
:102460009EC0883489F60E948705CECF883909F44A
:1024700094C038F5883729F050F4883611F0803749
:1024800019F683E08093920410920B0257C08838AB
:1024900009F483C0803919F0803809F0B5CF8091F4
:1024A0000B02803208F079C0E0910B0281E08E0FC0
:1024B00080930B0280917300F0E0E551FE4F808322
:1024C0003DC0803B39F0E0F4803A09F485C0883A99
:1024D00009F09ACF84E0809392041092EA0110925E
:1024E000E901E0914502F091460209958091E901E8
:1024F00081110FC081E08093E9011092C90109C0E8
:10250000803C09F4A6CF883C09F4A3CF883B09F0AE
:102510007BCFE091EA0181E08E0F8093EA01F0E049
:10252000E753FE4F8081809373009091EA01809180
:10253000E90131C080918B048093730085EC809316
:10254000740062CF90918D0480918C049817B8F537
:1025500080918E0490918F04E0918D0421E02E0FE4
:1025600020938D04E80FF92FF11D8081E5CF209194
:102570008E0430918F04E0918D0481E08E0F809362
:102580008D0480917300E20FF32FF11D80839091F1
:102590008D0480918C04981788F285E8D0CF209123
:1025A0008E0430918F04E0918D0481E08E0F809332
:1025B0008D0480917300E20FF32FF11D80838091D1
:1025C0009104811150CF81E080938A0484EA809342
:1025D00074001092920418CF85EC809374001092CE
:1025E000920480910B02803230F4E0910B02F0E013
:1025F000E551FE4F108260910B0270E0E0914302C2
:10260000F09144028BEE91E0099510920B02FCCE02
:102610001092900428CF1F920F920FB60F921124A0
:102620000BB60F92EF92FF920F931F932F933F934E
:102630004F935F936F937F938F939F93AF93BF93CA
:10264000CF93DF93EF93FF930FB6F894A89581B5DE
:10265000886181BD11BC0FBE789485B78F7D85BF21
:102660001092A301C1E0D1E0D0939304C093B504CC
:10267000109294041092B6040E949901811105C031
:102680008091A3018F5F8093A301CF5FCF3761F764
:102690008091A1019091A201009731F00E94292020
:1026A0001092A2011092A101D091A301DD2371F13A
:1026B00061E070E08D2F90E00E94711F7C0190938B
:1026C000A2018093A10110E0C1E001E00093930416
:1026D000C093B504109294041092B6040E9499011C
:1026E000811105C0F701E10FF11DC0831F5FCF5FAE
:1026F000CF3761F7D23050F080918A00887F809385
:102700008A0080917D008B7F80937D0010928800ED
:102710001092890085B7806285BFFF91EF91DF91AC
:10272000CF91BF91AF919F918F917F916F915F9169
:102730004F913F912F911F910F91FF90EF900F902C
:102740000BBE0F900FBE0F901F9018951F920F9207
:102750000FB60F9211240BB60F922F933F934F9306
:102760005F936F937F938F939F93AF93BF93CF9319
:10277000DF93EF93FF937894CFE4D1E0E991F9915F
:10278000808187FF08C08F772091A00191819217E7
:1027900020F10E94270881E0C738D80779F786E939
:1027A00084BD8091A0018F5F8032D1F08093A00121
:1027B000FF91EF91DF91CF91BF91AF919F918F9159
:1027C0007F916F915F914F913F912F910F900BBE31
:1027D0000F900FBE0F901F9018950E945F07DBCFE0
:1027E0001092A001E5CFE7EBF4E01382128288EEAD
:1027F00093E0A0E0B0E084839583A683B7838BE861
:1028000091E0918380830895CF93DF9300D01F924E
:10281000CDB7DEB7789483B78C6483BF87B7816008
:1028200087BF22E02EBD8EB581608EBD8FB58160E1
:102830008FBD85B5846085BD85B5806485BD80917B
:102840008A00836080938A0080918B0081608093EE
:102850008B0087E886B91AB80FB6F894A89581B5A9
:10286000886181BD11BC0FBE1ABA17BA14BA11BA69
:1028700012B8109261001092640061E081E00E9441
:10288000A10281E00E94F1011092480210924702D9
:10289000109294041092B6041092920481E08093F6
:1028A000910410928A0483E10E94F10182E10E9466
:1028B000F101809171008C7F8093710088E4809396
:1028C000700085E4809374008BE692E0909346025A
:1028D0008093450287E792E09093440280934302FD
:1028E00032E0309372008CE08093700085ED9AE0C6
:1028F00090934A028093490287E396E090934C02BA
:1029000080934B02BC9ABB9ABA9AB89A8E9A8D9AC7
:102910008C9A80916400806180936400809164004F
:10292000886080936400BF9A809161008460809386
:1029300061008091610082608093610080916100FC
:102940008160809361008091610080648093610068
:102950008F9A80916400816080936400809164000C
:10296000826080936400A09AA19AA29ABD9A8091F5
:10297000610080618093610080916100806280933A
:10298000610080916400846080936400A79AA69A95
:10299000BE9AA39AA59A8DE190E00E941A1F809397
:1029A0006E048CE190E00E941A1F80936F048DE109
:1029B00090E00E941A1F85FFDDC281E190E00E9435
:1029C0001A1F8F73482F50E0942F88279B838A8388
:1029D00082E190E00E941A1FAA81BB81A82BBB83D1
:1029E000AA832A813B81309372042093710483E18E
:1029F00090E00E941A1F8093730480E8809374040F
:102A000080937504E9EBCE2EE1E0DE2EFFE4EF2E9D
:102A1000F1E0FF2EA7E8AA2EA1E0BA2EB7E09B2E88
:102A2000F60105911491C8010E941A1F8983C801FB
:102A300001960E941A1F8A830E5F1F4FC8010E94D1
:102A40001A1F803228F06FE1C8010E94331F8FE106
:102A5000D7010D911D917D01F8018183FA81F03834
:102A600009F499C2F13809F49FC2F11113C03981F8
:102A7000399D9001112425573D4F3B832A8341E026
:102A8000B801C9010E94C80F40E0B8018A819B814A
:102A90000E94C80F82E0C80ED11CAE14BF0409F01A
:102AA000BFCF85E190E00E941A1F80FF05C0909182
:102AB000920294609093920281FF05C090919902D6
:102AC00094609093990282FF05C09091A002946057
:102AD0009093A00283FF05C09091A7029460909309
:102AE000A70284FF05C09091AE0294609093AE025D
:102AF00085FF05C09091B50294609093B50286FF62
:102B000005C09091BC0294609093BC0287FF05C001
:102B10008091C30284608093C30286E190E00E94AA
:102B20001A1F80FF05C090918B02946090938B02D6
:102B300082FF05C09091CA0294609093CA0283FFFD
:102B400005C09091D10294609093D10284FF05C09A
:102B50009091D80294609093D80285FF05C090911F
:102B6000DF0294609093DF0286FF05C09091E60239
:102B700094609093E60287FF05C08091ED02846027
:102B80008093ED028FE190E00E948D1F9B838A83EA
:102B900085E1AA81BB8111968C9386E090E00E942A
:102BA0008D1FDC01EEE9F2E0E4911196EC931197B0
:102BB000E9E6F2E024912C9330E0220F331FF90173
:102BC000E75FFD4F8591949113969C938E93129796
:102BD000F901E75DFD4F8591949115969C938E9335
:102BE0001497EA81FB81B68FA58FF0938904E09357
:102BF000880481E893E00E942F0AAA81BB818C930C
:102C0000843048F061E081E893E00E946C0A81E042
:102C1000EA81FB8180832A813B8130934E0220939D
:102C20004D02D90111968C918F3FA1F060E00E9476
:102C3000A102EA81FB8181819CEF980F943020F002
:102C40008251843008F08FEF42E050E064E87DE08C
:102C50000E94030360E0AA81BB815D968D919C91E7
:102C60000E9464052A813B81F901368325833387DD
:102C70002287308B2787358B248B328F218F148EC0
:102C8000138E82E08093820284E180938302EDE4DC
:102C9000F2E0E491F0E0EE0FFF1FE75EFD4F85915B
:102CA00094919093850280938402E2E8F2E0E491AB
:102CB000E093860260E084E10E94A102EBE5F2E08D
:102CC00086E1DF011D928A95E9F782E990E0909311
:102CD00054028093530282E590E0909352028093D5
:102CE000510210927102109272028FEF9FEF909337
:102CF0008802809387021092890283E080935002B9
:102D00008091860280934F0243E050E06AE773E0CF
:102D1000809182020E9403038DE190E00E94DD0910
:102D2000682F6F738DE190E00E94020C80938A02FD
:102D300062E187E090E00E94020C6DE088E090E0A4
:102D40000E94020C80E00E945D0A14BC15BC85B58F
:102D5000887F85BD87B7806487BF85B5836085BD63
:102D6000109288001092890010928A0010928B00B5
:102D700080918A00846080938A0080917D008460C5
:102D800080937D0085B7837E85BF85B7806285BFD0
:102D9000B1E0B98320E0C22E20E0D22E30E0432EF5
:102DA00030E0532E40E0642E40E0742E50E0E52EDB
:102DB00050E0F52E60E0A62E60E0B62EE0915502C0
:102DC000F0915602309709F0F5C0E981EB3009F037
:102DD000B9C2FBE0F9838091700482FF20C08BE8C8
:102DE00092E09B838A8315E46091740480916E0461
:102DF00080FF08C76095661F6627661F8A819B81D2
:102E00000E949C091150AA81BB811796BB83AA839B
:102E10001111EACF809170048B7F809370048091B0
:102E2000700483FF21C0EBE8F2E0FB83EA8315E442
:102E3000609175048091730487FFE6C66095661FF4
:102E40006627661F8A819B810E944A0911502A8148
:102E50003B81295F3F4F3B832A831111E9CF80914A
:102E60007004877F809370048091700480FF3EC05F
:102E70000EE614E028EF822E912C37E0332E9110CD
:102E8000DEC68091760484FFC1C68BE892E00E9482
:102E900066098091760480FFBEC682E992E00E94B6
:102EA00066098091760481FFBBC689E992E00E94A1
:102EB00066098091760482FFB8C680EA92E00E949B
:102EC00066098091760483FFB5C687EA92E00E9486
:102ED000660993940F5F1F4FF8E08F0E29E092125E
:102EE000CECF809170048E7F8093700480917004A7
:102EF00081FF3EC00EE614E088EF882E912C97E00B
:102F0000392E911026C780917F0484FF09C78BE872
:102F100092E00E94130980917F0480FF06C782E936
:102F200092E00E94130980917F0481FF03C789E921
:102F300092E00E94130980917F0482FF00C780EA1B
:102F400092E00E94130980917F0483FFFDC687EA07
:102F500092E00E94130993940F5F1F4FF8E08F0EC9
:102F600029E09212CECF80917004877F8093700405
:102F7000889524CF81E090E00E941A1F181634F043
:102F800063E081E090E00E94221F83E0E82FF0E000
:102F9000FB83EA8326CD4981499DC001112440E08D
:102FA000B80185579D4F74CD5981599DC001112499
:102FB00041E0F6CF20E030E0232B21F061818081D9
:102FC0000E940000E0915502F09156028081813408
:102FD00009F405C108F052C08A3209F463C168F5EA
:102FE000843209F45AC088F4813209F40DC1833265
:102FF00009F413C1811114C0A0E0B0E0AB2B09F4B7
:103000005CC081810E94000058C0863209F419C159
:1030100008F42BC1883209F435C1893209F43BC167
:1030200082819381AFEFBFEFB383A2839093560267
:1030300080935502BBE0B983CECE8E3209F447C1EE
:1030400058F48C3209F43CC108F433C1E114F104A2
:10305000A1F1618185E01CC1803309F446C108F407
:103060003DC1813309F44AC18034D1F6C114D10481
:1030700021F1618180E00E9400001FC0823609F4C6
:1030800071C0A0F5813509F4F0C080F4833409F4EF
:10309000B4C008F4ABC0803519F6818160E087FFC9
:1030A00002C061E080580E94540207C08E3509F4C6
:1030B0002CC1A0F4823509F0B3CFE0915502F09114
:1030C0005602828193812FEF3FEF338322839093C7
:1030D0005602809355023BE039837DCE8036E9F17C
:1030E000813609F09DCF618181E039C0873609F4CE
:1030F00045C058F48436E1F1C0F18536E1F18636F9
:1031000009F08ECF618186E02AC08C3609F411C1A6
:1031100030F4883609F084CF618188E020C08D3694
:1031200081F18E3609F07CCFA281B381109709F42A
:1031300050CE8C918F3609F64114510409F4BDCF5D
:103140002181622F661F6627661F11968C91A0E869
:103150008A9FC0011124822B3FC0618180E00E94C0
:103160004502ABCF618182E0FACF618183E0F7CF86
:10317000618184E0F4CF618185E0F1CF618187E0F6
:10318000EECF6181862F8F774114510409F495CFDA
:10319000811120C01B821A8267FD0FC04A815B81AA
:1031A0004F5F5F4F5B834A834038510509F485CFF9
:1031B00060E0CA010E940000F1CF8A819B810196E4
:1031C0009B838A838038910509F477CF61E00E9460
:1031D0000000F3CF607890E00E9400006ECFC11431
:1031E000D10409F46ACF618181E045CFC114D104D3
:1031F00009F463CF618182E03ECFC114D10409F4A8
:103200005CCF618183E037CF20E030E0232B09F4ED
:1032100054CF81810E94000050CF40E050E0452B08
:1032200009F44BCF818187FD06C0082E000C990B55
:103230000E94000042CF819590E09195819591097F
:10324000F7CF80E090E0892B09F437CF818187FDAB
:1032500006C0082E000C990B0E9400002ECF81950D
:1032600090E0919581959109F7CF6114710409F46B
:1032700024CF818160E087FF02C061E080580E9416
:1032800000001BCFE114F10409F417CF618180E045
:103290000E94000012CFE114F10409F40ECF618105
:1032A00081E0F6CFE114F10409F407CF618182E0F7
:1032B000EFCFE114F10409F400CF618183E0E8CF9E
:1032C000E114F10409F4F9CE618184E0E1CFE11465
:1032D000F10409F4F2CE618186E0DACFE114F10461
:1032E00009F4EBCE618187E0D3CFA114B10409F4D6
:1032F000E4CE618181E00E940000DFCEA114B10420
:1033000009F4DBCE618182E0F6CFA281B381109710
:1033100009F45FCD8C918F3509F0CFCE20E030E0FD
:10332000232B09F4CACE11969C9181810E94000042
:10333000C4CE40E050E0452B09F4BFCE81810E940D
:103340000000BBCE40918804509189045B834A837E
:10335000DA015B96ED91FC91309709F4B2C120E05F
:1033600030E0232B21F0618180810E940000AA813E
:10337000BB815B96ED91FC918081813409F4F4C0AE
:1033800008F051C08A3209F44CC160F5843209F466
:1033900059C088F4813209F4FCC0833209F402C1B7
:1033A000811114C0A0E0B0E0AB2B09F45BC08181B7
:1033B0000E94000057C0863209F405C108F414C108
:1033C000883209F41EC1893209F424C183819481B1
:1033D000AA81BB81B483A3835C969C938E935B97F5
:1033E000BAE029CE8E3209F431C158F48C3209F496
:1033F00026C108F41DC1E114F104A1F1618185E049
:1034000006C1803309F430C108F427C1813309F4BF
:1034100034C18034D9F6C114D10421F1618180E036
:103420000E9400001FC0823609F468C060F5813533
:1034300009F4DAC080F4833409F4A4C008F49BC012
:10344000803521F6818160E087FF02C061E080580D
:103450000E94540207C08E3509F416C160F482350B
:1034600009F0B4CFAA81BB815B96ED91FC915C978A
:1034700083819481AFCF8036E1F1813609F0A6CF08
:10348000618181E038C0873609F444C058F484363D
:10349000D9F1B8F18536D9F1863609F097CF618137
:1034A00086E029C08C3609F403C130F4883609F06F
:1034B0008DCF618188E01FC08D3679F18E3609F09D
:1034C00085CFA381B481109709F497C38C918F366F
:1034D00049F64114510431F22181622F661F66279B
:1034E000661F11968C91B0E88B9FC0011124822B2E
:1034F00038C0618180E00E944502B4CF618182E0E2
:10350000FACF618183E0F7CF618184E0F4CF6181FC
:1035100085E0F1CF618187E0EECF4114510409F4D9
:10352000A1CF6181862F8F77D1F410E000E067FD95
:103530000BC00F5F1F4F0038110509F493CF60E0F7
:10354000C8010E940000F5CF0F5F1F4F0038110522
:1035500009F488CF61E0C8010E940000F5CF6078CF
:1035600090E00E9400007ECFC114D10409F47ACF0C
:10357000618181E055CFC114D10409F473CF618119
:1035800082E04ECFC114D10409F46CCF618183E095
:1035900047CF20E030E0232B09F464CF81810E94E3
:1035A000000060CF40E050E0452B09F45BCF818103
:1035B00087FD03C00E94000055CF819590E0919552
:1035C00081959109F7CF80E090E0892B09F44ACFEB
:1035D000818187FD03C00E94000044CF819590E067
:1035E000919581959109F7CF6114710409F43ACF4F
:1035F000818160E087FF02C061E080580E94000086
:1036000031CFE114F10409F42DCF618180E00E94F3
:10361000000028CFE114F10409F424CF618181E096
:10362000F6CFE114F10409F41DCF618182E0EFCF00
:10363000E114F10409F416CF618183E0E8CFE114CD
:10364000F10409F40FCF618184E0E1CFE114F104CA
:1036500009F408CF618186E0DACFE114F10409F4BE
:1036600001CF618187E0D3CFA114B10409F4FACE70
:10367000618181E00E940000F5CEA114B10409F43B
:10368000F1CE618182E0F6CFA381B481109709F475
:10369000B6C28C918F3509F0E5CE20E030E0232BC7
:1036A00009F4E0CE11969C9181810E940000DACE4F
:1036B00040E050E0452B09F4D5CE81810E94000006
:1036C000D1CEE981E13009F086CB80917302882365
:1036D000F1F02FB7F8948091570290915802A09181
:1036E0005902B0915A022FBF409174025091750255
:1036F0006091760270917702841B950BA60BB70B35
:103700004597A105B10518F080E00E945D0A8091FF
:103710005D02882309F45FCBF89488E0E9E6F2E0E3
:10372000A3ECB4E001900D928A95E1F710925D024E
:1037300078948091C304E82FF0E0EB53FB4F863080
:1037400018F411928F5FFBCF80E090E0892B21F07D
:1037500083EC94E00E9400008091C504811117C0A1
:103760009091C604911113C080E090E0892B19F06C
:1037700080E00E94000080917302882321F081E0A4
:103780000E94BD0828CB81E00E945D0A24CB909165
:103790007302992309F495C08057803108F08EC0D8
:1037A00081E00E94BD08F091C304FA8380917A02FF
:1037B000F8130AC04F2F50E06CE772E085EC94E0FC
:1037C0000E94B220892B61F01092790288E0E3EC2C
:1037D000F4E0AAE7B2E001900D928A95E1F7FBCA06
:1037E000809179028F5F809379022A81233009F0DA
:1037F0004CC09091C504892F87701091C604853004
:1038000029F4109378020E94B809E5CA843059F16E
:10381000282F30E0843010F5409178024423F1F0F5
:10382000A42FA150BB0BAA0FBB1FAA0FBB1FA20F37
:10383000B31F1196BB83AA8393FF1AC061E08A81EC
:103840009B810E94930B882309F4C5CA612F8A814A
:103850009B810E94020C1813BECAD5CFF901319684
:10386000FB83EA83E9CF2DE130E03B832A83E4CF79
:1038700060E08A819B810E94930B882309F4ABCA84
:103880008A819B810E94DD09E6CF3A81343009F0BC
:10389000A2CA8091C504682F70E0762F662766273C
:1038A00073709091C604692B6F5F7F4F21EC39E0F4
:1038B0004091C7048C700E94250C8DCA80E00E9444
:1038C0005D0AE091C504EF3F61F48091C604811167
:1038D00082CA80E090E0892B09F47DCA0E94000032
:1038E0007ACAE7FD0CC00091C8042091C70440913A
:1038F000C60460E08E2F90E00E94930C6CCAE03CFE
:1039000008F06BC19091710297FF65CA8091C6045F
:10391000282F30E0A90140955095440F551F440FC2
:10392000551F407C5170EF734E2B5B834A83359556
:103930002795522F5370352E2091C304253069F5F9
:103940008C788C3051F50E94DF09AA81BB818A17DF
:103950009B0721F0AF3FB14009F03DCAF091C6048A
:103960002F2F30E0522F4427442753708091C704F3
:10397000480F511D4F5F5F4F5B834A831091C8040E
:1039800061E0CA010E94930B612F882309F423CAC6
:103990008A819B810E94020C1ECA8A809B8051E012
:1039A000851A9108880C991C880C991C832884011D
:1039B0000F5F1F4F809189028823F9F096FF41C065
:1039C000C80160E071E00E94401F682F81E090E034
:1039D0000E94020CC80117FF02C081509F4F692F3F
:1039E00089E090E00E94020C80E090E0892B19F0C1
:1039F000C8010E940000109289028091710280FD2E
:103A00003CC08091C304843009F052C08091C60448
:103A10008978813009F0DFC96091C70480E090E0C7
:103A2000892B19F0C8010E94000080E090E0892BEA
:103A300009F4D1C94091C704632DC8010E94000058
:103A4000CAC96A817B816F73772781E090E00E9409
:103A5000020C6A817B81E6E075956795EA95E1F74E
:103A600089E090E00E94020C80E090E0892B19F23E
:103A70008A819B810E940000BECF86FF0CC00E94FD
:103A8000DF098017910709F4BCCF0D3F87E01807C5
:103A90000CF0B7CFA0C90E94DF09AA81BB818A17A9
:103AA0009B0709F4AECFAF3FB14009F4AACF93C949
:103AB000833079F54091C604F42FF1708F2E43FBCB
:103AC000992490F880E090E0892B39F04770292DF7
:103AD0006A817B81C8010E9400008091710286FF8B
:103AE0000BC080E090E0892B09F475C9492D682D41
:103AF000C8010E9400006FC980E090E0892B09F4A2
:103B00006AC9292D482D632D8A819B810E9400005E
:103B100062C9863009F05FC98091C604982F9978F0
:103B2000913021F08F78803809F055C98091710269
:103B300086FF2BC00E94DF098017910711F5809145
:103B4000C70490E0382F2227222733704091C80401
:103B5000A42FA20FB32FB11D1196BB83AA8310917E
:103B6000C904959587959595879583709927823097
:103B70009105B1F0039709F02EC961E08A819B811C
:103B800001CF0D3F1740DCF626C90E94DF09EA810C
:103B9000FB818E179F0799F2EF3FF14081F21BC91D
:103BA00014FF19C961E08A819B810E94930B8823CD
:103BB00009F411C98A819B810E94DD09912F9770B8
:103BC00061E070E001C0660F9A95EAF713FF02C04A
:103BD000682BDECE60956823DBCEE83E08F0FBC89C
:103BE000E05CFF0B8091C6040091C9042091C804D9
:103BF0004091C70461E09E2F7FCE3AE06DCA4AE053
:103C00004983E9C86078FAC860781CC98BE892E0FB
:103C10000E941F083EC982E992E00E941F0841C924
:103C200089E992E00E941F0844C980EA92E00E945C
:103C30001F0847C987EA92E00E941F084AC9882DD9
:103C400090E00596389EA001399E500D11245B83AB
:103C50004A83CA0185579D4FD80118962C9120FFA1
:103C60004AC00E9466098A819B818E569D4FF80149
:103C7000208521FF43C00E9466098A819B81875667
:103C80009D4FD80118962C9122FF3BC00E946609D7
:103C90008A819B8180569D4FF801208523FF34C087
:103CA0000E9466098A819B8189559D4FD80118968B
:103CB0002C9124FF2CC00E9466098A819B81825529
:103CC0009D4FF801208525FF25C00E9466098A8145
:103CD0009B818B549D4FD80118962C9126FF1DC0B7
:103CE0000E9466098A819B8184549D4FF80120853A
:103CF00027FFA2CFECC80E941F08B5CF0E941F0863
:103D0000BCCF0E941F08C4CF0E941F08CBCF0E94C7
:103D10001F08D3CF0E941F08DACF0E941F08E2CFEE
:103D20008BE892E00E941608F6C882E992E00E94B1
:103D30001608F9C889E992E00E941608FCC880EAD2
:103D400092E00E941608FFC887EA92E00E941608D7
:103D500002C9882D90E00596389EA001399E500D2D
:103D600011245B834A83CA0185579D4FD801519620
:103D70002C9120FF4AC00E9413098A819B818E5694
:103D80009D4FF801218921FF43C00E9413098A81B8
:103D90009B8187569D4FD80151962C9122FF3BC0A5
:103DA0000E9413098A819B8180569D4FF8012189C9
:103DB00023FF34C00E9413098A819B8189559D4F3E
:103DC000D80151962C9124FF2CC00E9413098A819E
:103DD0009B8182559D4FF801218925FF25C00E94B6
:103DE00013098A819B818B549D4FD80151962C9148
:103DF00026FF1DC00E9413098A819B8184549D4F18
:103E0000F801218927FFA2CFA4C80E941608B5CFC8
:103E10000E941608BCCF0E941608C4CF0E94160844
:103E2000CBCF0E941608D3CF0E941608DACF0E948B
:103E30001608E2CFE199FECF9FBB8EBBE09A99278F
:103E40008DB30895262FE199FECF9FBB8EBBE09ADC
:103E500001970DB2021631F02DBB0FB6F894E29A1D
:103E6000E19A0FBE0895262FE199FECF9FBB8EBB2E
:103E70002DBB0FB6F894E29AE19A0FBE0196089511
:103E800097FB072E16F4009407D077FD09D00E9407
:103E90005D1F07FC05D03EF4909581959F4F0895D6
:103EA000709561957F4F0895EE0FFF1F0024001C51
:103EB0000BBE0790F691E02D0994AA1BBB1B51E1A4
:103EC00007C0AA1FBB1FA617B70710F0A61BB70B8A
:103ED000881F991F5A95A9F780959095BC01CD012F
:103EE00008950F931F93CF93DF93869F8001879F41
:103EF000100D969F100D1124C8010E948D1FEC011A
:103F0000009729F0A80170E060E00E94BF20CE0178
:103F1000DF91CF911F910F9108950F931F93CF932E
:103F2000DF938230910510F482E090E0E091CD04BF
:103F3000F091CE0430E020E0B0E0A0E0309799F4BA
:103F40002115310509F44AC0281B390B24303105ED
:103F5000D8F58A819B816115710589F1FB019383F5
:103F60008283FE0111C04081518102811381481773
:103F70005907E0F04817590799F4109761F0129625
:103F80000C93129713961C933296CF01DF91CF9129
:103F90001F910F9108950093CD041093CE04F4CF98
:103FA0002115310551F04217530738F0A901DB0103
:103FB0009A01BD01DF01F801C1CFEF01F9CF909364
:103FC000CE048093CD04CDCFFE01E20FF31F819389
:103FD00091932250310939832883D7CF2091CB0484
:103FE0003091CC04232B41F420914B0130914C01B2
:103FF0003093CC042093CB042091490130914A01A5
:104000002115310541F42DB73EB740914D01509136
:104010004E01241B350BE091CB04F091CC04E21748
:10402000F307A0F42E1B3F0B2817390778F0AC01DB
:104030004E5F5F4F2417350748F04E0F5F1F5093B8
:10404000CC044093CB04819391939FCFF0E0E0E0C8
:104050009CCFCF93DF930097E9F0FC013297138256
:104060001282A091CD04B091CE04ED0130E020E0A9
:104070001097A1F420813181820F931F2091CB04EE
:104080003091CC042817390709F061C0F093CC04B3
:10409000E093CB04DF91CF910895EA01CE17DF07BB
:1040A000E8F54A815B819E0141155105B1F7E901AF
:1040B000FB83EA8349915991C40FD51FEC17FD0783
:1040C00061F4808191810296840F951FE9019983A3
:1040D0008883828193819B838A83F0E0E0E012965B
:1040E0008D919C9113970097B9F52D913C91119763
:1040F000CD010296820F931F2091CB043091CC0406
:104100002817390739F6309751F51092CE041092DE
:10411000CD04B093CC04A093CB04BCCFD383C28393
:1041200040815181840F951FC817D90761F44E5FF4
:104130005F4F88819981480F591F518340838A813D
:104140009B81938382832115310509F0B0CFF093D1
:10415000CE04E093CD049ECFFD01DC01C0CF1382DD
:104160001282D7CFFB01DC0104C08D910190801930
:1041700021F441505040C8F7881B990B0895DC0189
:1041800001C06D9341505040E0F70895F894FFCF7F
:104190001CFF1BFF1AFF19FF18FF17FF16FF15FF63
:1041A00014FF13FF12FF11FF10FF0FFF0EFF0DFF93
:1041B0000CFF0BFF0AFF09FF08FF07FF06FF05FFC3
:1041C00004FF03FF02FF01FF0142050000000000A1
:1041D0000000000000000000000000CF0480003656
:1041E000013401320130012E012C012A012801265F
:1041F000012401220120011E011C011A01180116CF
:10420000011401120110010E010C010A010801063E
:1042100001040102010001000000000806DB054F57
:0A42200006B8058005C805B90500C1
:00000001FF
