:100000000C946C010C94220F0C94F70E0C94CC0EF3
:100010000C94A10E0C94760E0C944B0E0C94200EA6
:100020000C94F50D0C948B010C944D0F0C948B01DA
:100030000C948B010C948B010C948B010C948B0110
:100040000C94AB0D0C948B010C948B010C948B01D4
:100050000C948B010C948B010C948B010C948B01F0
:100060000C948B010C948B010C948B010C948B01E0
:100070000C948B010C948B010C948B010C948B01D0
:100080000C948B010C948B010C948B0140030000A9
:10009000000000130D0000000000000101C08000FE
:1000A000000000000000000000060000000000004A
:1000B0000000000000000000000000000000000040
:1000C000000000000000FF1F001E000000000000F4
:1000D0000000000000000000000000000000000020
:1000E0000000000000000000000000000000000010
:1000F00000000000000000000000000002001400EA
:10010000030014000400140005001400060014008D
:100110000700140008001400090014000A0014006D
:100120000B0014000C0010000D0010000E00100059
:100130000F0010001000100011001000120010003D
:100140001300100014001000150010001600140019
:10015000010014000100140001001400010014004B
:100160000100140000801F0000811F00FF0000003C
:10017000FF000000FF000000FF000000FF00000083
:10018000FF000000FF000000FF000000FF00000073
:10019000FF000000FF000000FF0000000000000062
:1001A000000000000000000000000000000000004F
:1001B0000000000000000000000000000A0B0C001E
:1001C000000000000001040506000000000000001F
:1001D000000000000000000000000000000000001F
:1001E000000000000000000000000000000070009F
:1001F000740078007C008000840088008C009000EF
:10020000940098009C00A000A400A800AC00B000DE
:10021000B400B800BC00C000C400C800CC00D000CE
:10022000D400D800DC00E000E400E800EC00F000BE
:10023000F400F800FC000001040108010C010000BA
:100240003B003800350032002300620065000000EA
:100250003A003700340031002200610064000102DE
:10026000040810204080010204081020408008107B
:10027000010204081020408001020102040810203D
:10028000408004804020100804020101020408108C
:10029000204080000039003600330030002100206B
:1002A00000630005050505050505050202020202B9
:1002B00002020207070404040404040404070703F9
:1002C000030303030303030701010101010101010A
:1002D000060606060606060611241FBECFEFD0E16D
:1002E000DEBFCDBF11E0A0E0B1E0ECE2F5E300E05D
:1002F0000BBF02C007900D92A638B107D9F723E0D3
:10030000A6E8B1E001C01D92A33FB207E1F70E9449
:10031000A60F0C94941A0C940000E82FF0E0E5531B
:10032000FC4F8085861739F06087618B8091CD0303
:1003300083608093CD030895262F30E09091D10300
:100340009078691729F09091CD039C609093CD032C
:100350003695322F222737952795822B8093D1030C
:100360008093D2030895CF93DF9390E0FC01E25A8B
:10037000FD4F24918D559D4FFC0184918823C9F038
:1003800090E0880F991FFC01E25BFD4FA591B491AD
:10039000FC01E25CFD4FC591D49161110DC09FB786
:1003A000F8948C91209582238C938881282328832C
:1003B0009FBFDF91CF910895623051F49FB7F894B9
:1003C0003C91822F809583238C93E8812E2BEFCF55
:1003D0008FB7F894EC912E2B2C938FBFEACF3FB7B9
:1003E000F8948091A8019091A901A091AA01B091DF
:1003F000AB0122B706B600FE05C02F3F19F00196EB
:10040000A11DB11D3FBFBA2FA92F982F8827BC016E
:10041000CD01620F711D811D911D42E0660F771F96
:10042000881F991F4A95D1F70895883008F5E82F5D
:10043000F0E0EE0FFF1FE85CFE4F71836083815098
:10044000873068F4E82FF0E0E85DFD4F0C94221946
:1004500039024602540262026902740280028091EB
:100460006A008C7F482B40936A0089B7816089BFFE
:10047000089580916A00837F440F551F440F551FD4
:10048000482B40936A0089B78260F1CF80916A005F
:100490008F7C74E0440F551F7A95E1F7482B409309
:1004A0006A0089B78460E3CF80916A008F7366E049
:1004B000440F551F6A95E1F7482B40936A0089B7AE
:1004C0008860D5CF8AB78C7F482B4ABF89B78061B7
:1004D000CECF8AB7837F440F551F440F551F482B3B
:1004E0004ABF89B78062C3CF8AB78F7C24E0440FAC
:1004F000551F2A95E1F7482B4ABF89B78064B7CFCB
:100500008AB78F7396E0440F551F9A95E1F7482BF1
:100510004ABF89B78068ABCFFF920F931F93CF93E9
:10052000DF930E94EF0120918A0130918B01EB0152
:10053000C21BD30B2091B0013091B101C217D30778
:1005400008F461C04091B8015091B90141305105A2
:1005500061F0E091E101F091E20120813091E3014D
:1005600023233091AE0123134EC070938B0160930F
:100570008A010091B2011091B3014230510509F492
:1005800019C14330510509F454C14130510561F49A
:1005900080918901813009F449C0D8F1833009F490
:1005A00086C0843009F4CFC08091B8019091B90120
:1005B000019749F1C017D10708F073C180918701F5
:1005C0008F5F809387018B30F0F081E090E0909313
:1005D000B9018093B80141E050E06CE872E080918D
:1005E000DF010E9415021092AE011092890182E58E
:1005F00090E09093B3018093B20183E290E09093F6
:10060000B1018093B001DF91CF911F910F91FF90C5
:100610000895C017D10730F481E080938901C09319
:100620008801C2CF84E080938901BECFC017D10773
:10063000E0F510928901809187018F5F8093870197
:10064000209188018C2F0C2E000C990B821B910994
:1006500027FD939597FF03C091958195910949973F
:1006600094F21092B9011092B80182E990E090934F
:10067000B3018093B20182E590E09093B101809341
:10068000B00110928701F090AF014F2D50E06CE85F
:1006900072E08091DF010E9415028091E30193E0F6
:1006A000F91229C08093AE017FCF83E0BCCFC01781
:1006B000D10718F51092B9011092B80182E990E0C3
:1006C0009093B3018093B20182E590E09093B101E1
:1006D0008093B00110928701F090AF014F2D50E050
:1006E0006CE872E08091DF010E9415028091E301C5
:1006F00033E0F316B9F280E0D5CF9091AF0193309B
:1007000009F482E08093AF0182E090E09093B90118
:100710008093B80182E990E09093B3018093B20195
:1007200082E590E09093B1018093B0011092BE01F8
:10073000809187018093BF011092BB011092BD018F
:100740001092BC01C9CFC017D107A8F41092B9010B
:100750001092B80182E990E09093B3018093B201C6
:1007600082E590E09093B1018093B00110928701EF
:100770001092BB0188CF82E090E09093B901809302
:10078000B80182E990E09093B3018093B20182E5D1
:1007900090E09093B1018093B0011092BE018091DE
:1007A00087018093BF011092BB011092BD0110928E
:1007B000BC0169CF9091BB019F5F9093BB01809179
:1007C000BC01880FC017D107E0F08093BC019830BE
:1007D00009F0F0CEE091BE01E630A9F41092B90123
:1007E0001092B80182E990E09093B3018093B20136
:1007F00082E590E09093B1018093B0011092BB012B
:10080000D3CE8160E2CF83E090E09093B9018093F2
:10081000B8019091BC0181E08E0F8093BE01F0E0A1
:10082000E854FE4F90878091BD0189278093BD01D8
:10083000BBCEC017D10728F51092B9011092B801AC
:100840001092BB0182E990E09093B3018093B201D2
:1008500082E590E09093B1018093B0018091BD0159
:100860008111ACCE88E0EEEBF1E0A6ECB1E00190B6
:100870000D928A95E1F781E08093BA011092870189
:1008800093CE8091BE01863009F4A8CF82E090E03B
:100890009093B9018093B8011092BB011092BC01F2
:1008A00083CE10928701AFCE0895CF93DF93DC0102
:1008B000EC91F0E0EE0FFF1FED56FD4FC591D49186
:1008C000988111968C91982381E009F480E0DF9162
:1008D000CF910895DC011296ED91FC91139711963A
:1008E0009C911197808161110EC0909598239083FF
:1008F0001496ED91FC911597908111968C918095AD
:10090000892380830895982B9083089580E090E058
:10091000892B29F08091E70183FD0C940000089554
:10092000009731F16091CE037091CF03861797073E
:1009300009F06DC041504A30D8F4E42FF0E0ED5595
:10094000FB4F0C942219AD04B904C404D404DB0495
:10095000E204E904F004F704FF048091D3032817AC
:1009600039F02093D3038091CD0381608093CD0330
:1009700008959091D40380EF820F292B282392179A
:10098000B9F32093D403EFCF3091D40340E1249FF7
:10099000C0011124832B2295207F215F82233817E9
:1009A00039F38093D403DFCF8091D503281701F367
:1009B0002093D503D8CF8091D6032817C9F220936E
:1009C000D603D1CF8091D703281791F22093D70374
:1009D000CACF8091D803281759F22093D803C3CFE8
:1009E0008091D903281721F22093D903BCCF80919D
:1009F000DA03281709F4BCCF2093DA03B4CF80912F
:100A0000DB03281709F4B4CF2093DB03ACCF30917C
:100A1000D0033F773817190609F0AACF4230A1F06A
:100A200018F4413031F008954330D1F0443049F1A9
:100A300008958091DC03281709F49ACF2093DC03F2
:100A40008091CD03826092CF9091DD0380EF820F81
:100A5000292B2823921709F48BCF2093DD03F0CFA5
:100A60003091DD0340E1249FC0011124832B2295A6
:100A7000207F215F8223381709F47ACF8093DD032A
:100A8000DFCF8091DE03281709F472CF2093DE03B5
:100A9000D7CF0F93009721F16091CE037091CF03D0
:100AA0008617970729F5822F90E03091D10330788F
:100AB000231729F02091CD0324602093CD030D311D
:100AC00089F00F3779F00F3081F49C013695322F81
:100AD0002227379527958091D103822B8093D103CC
:100AE0000F9108954093D103F0CF1092D103EDCF31
:100AF0003091D0033F773817190691F7822F90E095
:100B00003091D2033078231729F02091CD0328604B
:100B10002093CD039695982F882797958795482BF6
:100B20004093D203DDCF81508C3108F073C0E82FA1
:100B3000F0E0E356FA4F0C942219B905BB05BD0548
:100B4000BF05C105C305C505C705CD05D105D3053D
:100B5000D905DD05E105E505E705EB05EF05F1053F
:100B6000F305F505F705FB05FF0503060506070672
:100B70000906C4980895C3980895C2980895C09826
:100B80000895969808959598089594980895809159
:100B900065008F7E80936500089580916500877F52
:100BA000F9CFC7980895809162008B7F809362008F
:100BB0000895809162008D7FF9CF809162008E7FD1
:100BC000F5CF809162008F7BF1CF97980895809147
:100BD00065008E7FDFCF809165008D7FDBCFA89889
:100BE0000895A9980895AA980895C59808958091A0
:100BF00062008F7EDBCF809162008F7DD7CF8091A6
:100C000065008B7FC7CFAF980895AE980895C698BA
:100C10000895AB9808951F93CF93DF93EC018A81D9
:100C20009B8110E0892BE9F48D819E8110E0892B56
:100C300069F588818E7F8883DF91CF911F91089518
:100C4000812F90E0880F991FEA81FB81E80FF91F3F
:100C50000190F081E02D80818F7780830E94930541
:100C60001F5F8981181760F3DFCF812F90E0880F15
:100C7000991FED81FE81E80FF91F0190F081E02DB1
:100C800080818F7780830E9493051F5F8C81181766
:100C900060F3CFCFFC0190819570953019F4CF01AE
:100CA0000C940B060895FC01208120FF03C022FF55
:100CB0000C940B06089581508C3108F073C0E82F16
:100CC000F0E0EB59F94F0C94221981068306850652
:100CD000870689068B068D068F06950699069B0664
:100CE000A106A506A906AD06AF06B306B706B90666
:100CF000BB06BD06BF06C306C706CB06CD06CF069C
:100D0000D106C49A0895C39A0895C29A0895C09AC4
:100D10000895969A0895959A0895949A08958091C1
:100D2000650080618093650008958091650088600A
:100D3000F9CFC79A08958091620084608093620021
:100D40000895809162008260F9CF80916200816095
:100D5000F5CF809162008064F1CF979A08958091D9
:100D600065008160DFCF809165008260DBCFA89A4B
:100D70000895A99A0895AA9A0895C59A0895809108
:100D800062008061DBCF809162008062D7CF80916A
:100D900065008460C7CFAF9A0895AE9A0895C69A49
:100DA0000895AB9A08959091CD03882361F09061E6
:100DB0009093CD0381E00E945B0680918A00887F3A
:100DC00080938A0008959F7E9093CD0381E00E94D6
:100DD0009305109288001092890080918A008460A7
:100DE000EFCFCF93C82F8091D0018C1719F08C2FA3
:100DF0000E94D306C093D001CC23F9F02FB7F8940A
:100E00008091B4019091B501A091B601B091B70164
:100E10002FBF482F392F2A2F8B2F4093D10130938A
:100E2000D2012093D3018093D4018091D0018C17FB
:100E300049F08C2FCF910C94D30640E030E020E0B5
:100E400080E0EBCFCF9108950F931F93CF938C0148
:100E5000C0E0F8018181C81720F0CF911F910F9158
:100E600008958C2F90E0880F991FD8011296ED916C
:100E7000FC91E80FF91F0190F081E02D8081982FFF
:100E8000906890838F770E945B06CF5FE2CF1F93BD
:100E9000CF93DF93EC01288120FD15C022FF13C002
:100EA000322F3160388321FF09C02A813B81232BF7
:100EB00051F0DF91CF911F910C9424072D813E8139
:100EC00010E0232BB9F4DF91CF911F910895812F6A
:100ED00090E0880F991FED81FE81E80FF91F0190C6
:100EE000F081E02D8081982F906890838F770E9409
:100EF0005B061F5F8C81181750F3E5CFCF93DF930C
:100F0000EC018881982F9270691789F0662369F047
:100F100082608883888180FF0AC0CE010E944A06D1
:100F2000CE01DF91CF910C9447078D7FF2CFDF91F7
:100F3000CF9108951F93CF93DF93EC012881322F37
:100F4000357099F4322F3160388321FF09C02A812E
:100F50003B81232B51F0DF91CF911F910C942407FB
:100F60002D813E8110E0232BB9F4DF91CF911F91A9
:100F70000895812F90E0880F991FED81FE81E80F81
:100F8000F91F0190F081E02D8081982F9068908367
:100F90008F770E945B061F5F8C81181750F3E5CF97
:100FA000CF93DF93EC018881982F9270691789F0B5
:100FB000662369F082608883888180FF0AC0CE0141
:100FC0000E945306CE01DF91CF910C949A078D7F3A
:100FD000F2CFDF91CF910895AD9A8FE79EE301970D
:100FE000F1F700C00000AD9808950C94EC071F9332
:100FF000CF93DF93EC018091CD0384FF0BC08FE092
:1010000090E00E94E818182F80E190E00E94E81814
:10101000181306C0CE01DF91CF911F910C94E818F0
:10102000FFCF0C94F707CF93DF932091E401309129
:10103000E5012F3F320721F0C901DF91CF910895DB
:101040008091E70187FF2BC086FF0FC089E090E009
:101050000E941108C82F81E090E00E9411089C2F87
:101060009093E5018093E40115C089E090E00E942F
:101070001108C82F81E090E00E94110890E4C99FF8
:1010800090011124207C31708F73282B3093E5015F
:101090002093E4018091E4019091E501CECF85FF9A
:1010A0000CC081E190E00E941108C82F82E190E01D
:1010B0000E941108C05CDD0BD2CF81E090E00E945D
:1010C000110890E0CDCFCF93863823E0920719F135
:1010D00038F4813823E09207D9F0CF910C94E818C6
:1010E000873823E09207D1F0883823E09207A9F7E8
:1010F00086E893E00E94E818C82F87E893E00E94F2
:10110000E81890E02FEFC29F800D911D1124E5CFCC
:1011100081E893E0E2CF86E893E0DFCF87E893E0D1
:10112000DCCF0E94F106EEECF1E081E087831086CF
:10113000E7EDF1E088E0DF011D928A95E9F7089577
:101140000F931F93CF93DF93EC01162FC63883E0E4
:10115000D80781F150F4C13883E0D807F9F0612F46
:10116000CE010E94F018CE011FC0C73883E0D80717
:1011700041F1C83883E0D80791F786E893E00E94F0
:10118000E818082F87E893E00E94E818C82FD0E0FD
:101190008FEF089FC00DD11D1124E1CF81E893E0AE
:1011A0000E94F01881E893E0DF91CF911F910F9199
:1011B0000C94E81886E893E00E94F01886E893E023
:1011C000F3CF87E893E00E94F01887E893E0ECCF34
:1011D000CF93DF93D0E0C0E0FE01E457FF4F64916E
:1011E000CE010E94F0182196CD3281E0D807A1F7F8
:1011F00061E081E893E00E94F018C0E0CF5F8C2F9F
:101200000E945B06CC31D1F7DF91CF9108950C9409
:10121000E8081F93CF93DF93EC01162F089779F41A
:10122000662319F10E94E80880E090E0892BB9F06C
:10123000612FCE01DF91CF911F910C94000080E0CF
:1012400090E0892BA9F781E0C11590E1D90708F05A
:1012500080E0111105C0DF91CF911F91089581E0C9
:1012600027972297C0F780E0F6CF80E090E0892BA7
:10127000F9F681E0F0CF0F931F93CF93DF93EC014A
:10128000162F8091CD0384FF25C0CF30D10561F4A6
:101290008FE090E00E94F0188FE090E0DF91CF9116
:1012A0001F910F910C94E8188FE090E00E94E818CD
:1012B000082F80E190E00E94E81808130AC0C730A8
:1012C000D10531F0C830D10529F4183049F0FFCFED
:1012D000FFCFFFCF612FCE010E94F018CE01DECFED
:1012E0000E94E80888E0DF91CF911F910F91089547
:1012F0008331910588F48131910530F48130910575
:1013000019F08930910531F42FEF3FEF3093E5016B
:101310002093E4010C943B098D319105D9F7677F47
:101320006093E7012091CE012F73362F307C232B61
:101330002093CE01E9CFBF92CF92DF92EF92FF923E
:101340000F931F93CF93DF938B01B42E690182FF1C
:1013500023C083FF17C061E0C8010E9409098823E8
:10136000D9F16B2DC8010E9478098B1135C0F601A7
:10137000DF91CF911F910F91FF90EF90DF90CF9071
:10138000BF90099460E0C8010E940909882321F1F7
:10139000C8010E941108E9CF842F8770C1E0D0E016
:1013A0007E0101C0EE0C8A95EAF7D42FD870CB01EC
:1013B0000E941108C82FB4FE1CC061E0C8010E9441
:1013C0000909882349F0DD2389F0CE296C2FC80153
:1013D0000E9478098C1759F2DF91CF911F910F91DC
:1013E000FF90EF90DF90CF90BF900895E094CE21D2
:1013F000EDCF60E0C8010E940909882369F3CE217E
:10140000DD2319F0C111B3CFE7CFCC2309F4AFCF5F
:10141000E3CFAF92BF92DF92EF92FF920F931F93B1
:10142000CF93DF937C01162FC42FD22ED42FD07EE2
:101430008091CE0187FF2CC0D03EC1F5A090CF0196
:10144000AA20A1F1B12CC5010E941108D82FC50115
:1014500001960E941108982F8D2FE816F90631F594
:101460006C2F70E0762F6627662773706D296F5F8B
:101470007F4F26E834E0402F8C2FDF91CF911F91D2
:101480000F91FF90EF90DF90BF90AF900C949B096D
:1014900080FD33C0D03609F464C090F4D03209F432
:1014A00049C0D03409F45DC0DD2381F1DF91CF91D3
:1014B0001F910F91FF90EF90DF90BF90AF90089534
:1014C000D03A09F484C090F42C2F2F7141E0D03829
:1014D00069F7612FC701DF91CF911F910F91FF90A5
:1014E000EF90DF90BF90AF900C949004D03C09F443
:1014F00075C0D03E09F4B4CFD9CF0E9413088E1521
:101500009F0541F2E114F10429F2D0CF8C2F8E70A7
:1015100069F680E090E0892B49F28C2F8170DF9191
:10152000CF911F910F91FF90EF90DF90BF90AF9000
:101530000C940000CF71CF3109F0B8CF4D2D4F770B
:1015400061F0413061F02D2D221F2227221F0DE175
:10155000612FC7010E944905A9CF41E0F4CF40E0C7
:10156000F2CF2C2F30E08C2F8F71813029F030F0AA
:10157000803121F0813109F540E001C041E095E082
:10158000359527959A95E1F721700DE1612FC701F7
:101590000E94490580E090E0892B09F487CF4C2F09
:1015A000612FC701DF91CF911F910F91FF90EF90B5
:1015B000DF90BF90AF900C940000C901880F991F75
:1015C0008E71C4FB442740F9482B4250D8CF2C2FB2
:1015D0002F7043E0C4FF7DCF42E07BCFCF71CE318F
:1015E00031F0CF3109F062CF2D2D45E072CF2D2D96
:1015F00044E06FCF4F925F926F927F928F929F9253
:10160000AF92BF92CF92DF92EF92FF920F931F9310
:10161000CF93DF93C091AC01D091AD0180919F0138
:10162000811116C02FB7F8948091B4019091B50143
:10163000A091B601B091B7012FBF80939B01909309
:101640009C01A0939D01B0939E0181E080939F0136
:1016500080919301811111C00E94EF0160517109C5
:101660008109910960938F0170939001809391019A
:101670009093920181E0809393010E94EF012B01EE
:101680003C018FB7F894C090B401D090B501E090C0
:10169000B601F090B7018FBF80919B01BC2CB81AA6
:1016A00080918F01909190019201281B390BC90103
:1016B00020918E01211169C0FE0130E020E04581BA
:1016C0005681C417D50709F056C045E0429F8001F6
:1016D000439F100D11240E5F1F4F0C0F1D1F109301
:1016E0008D0100938C010115110509F458C0F80112
:1016F000148213828031910508F492C1853F914094
:1017000008F0B4C18D8D9E8D0E945504F801808330
:1017100081E080938E0140928F01509290016092FF
:10172000910170929201F6E0FB1508F47DC18D8D58
:101730009E8D0E945504A0908C01B0908D019091D7
:101740008E01E92FE695E695E695292F277041E071
:1017500050E060E070E004C0440F551F661F771F23
:101760002A95D2F7EA0DFB2DF11D811129C0409574
:101770008081482327C02F5F3F4F359625303105A4
:1017800009F09DCF10E000E0AACF26E02B1508F469
:101790004BC18031910518F0853F914040F2DF91B7
:1017A000CF911F910F91FF90EF90DF90CF90BF905E
:1017B000AF909F908F907F906F905F904F90089523
:1017C0008081482B408381E0890F80938E01409275
:1017D0008F01509290016092910170929201982F26
:1017E0009770E9F68031E9F4F5018081873780F45C
:1017F000EB8DFC8D309721F4BC8EAB8E07C0FC01C5
:10180000838194810097D9F7B482A38210928E01CC
:10181000C0929B01D0929C01E0929D01F0929E01AA
:10182000BECF8831A9F7F50111811F778DEF782E92
:10183000710EF7E2F71580F088818130A1F4812ED6
:10184000912C1D3220F51B3228F4112351F121E097
:10185000271508F18DE026C085ED810F883250F400
:101860008881823061F3E0918C01F0918D01D48305
:10187000C383CCCF8DEA810F883220F488818330F6
:1018800091F7DDCF8EEF810F8230C8F6ECCF8DEA75
:10189000810F8230F8F2C4018F579C4F0E94630879
:1018A00001C08881F501028190819B3739F19F3712
:1018B00009F46CC09737B9F60813D5CF61E08D8D68
:1018C0009E8D0E946A048D8D9E8D0E949A0F8FE6D8
:1018D00097E10197F1F700C00000AD8DBE8D149621
:1018E000ED91FC911597808111969C91892B8083B5
:1018F00060E08D8D9E8D0E946A04B5CF202F2870E8
:10190000302F377004FF35C01D3278F51B3208F0D8
:10191000AACF91E0971508F0A6CF41E050E060E033
:1019200070E004C0440F551F661F771F3A95D2F729
:10193000182F142B211103C0142F10951823612F79
:10194000C4018F579C4F0E94A00818138CCF61E0F0
:101950008D8D9E8D0E946A048D8D9E8D0E949A0FA2
:10196000EFE6F7E13197F1F7B6CF13551230A8F64D
:101970007ACF90E002C0959587953A95E2F781700D
:1019800099272817190609F06ECF98CF1B32D9F185
:1019900090F51330C1F1143009F465CF602FC40104
:1019A0008F579C4F0E94A00808131FC061E08D8DC7
:1019B0009E8D0E946A048D8D9E8D0E949A0F8FE6E7
:1019C00097E10197F1F700C00000AD8DBE8D149630
:1019D000ED91FC911597808111969C91892B8083C4
:1019E00060E08D8D9E8D0E946A0411113CCF043001
:1019F00078F4088338CF133531F0143509F433CF38
:101A00001C3261F630CF083081F70E94E8089FCF82
:101A100061E081E893E00E94A00881E0888323CF01
:101A2000F6E0FB1508F0BBCE99E09B1508F0B7CEA9
:101A3000C0929B01D0929C01E0929D01F0929E0188
:101A400000918C0110918D018D8D9E8D0E94550409
:101A5000F801808381E080938E0140928F01509243
:101A60009001609291017092920199CE26E02B151F
:101A7000D8F295CE9F92AF92BF92CF92DF92EF9223
:101A8000FF920F931F93CF93DF937C016B01942EF2
:101A900081E0F701481328C0A280B380E7012196B6
:101AA000A114B10431F562E070E081E090E00E94A1
:101AB0003F198C01009731F0FC01D182C0828881EE
:101AC0008F5F8883F1E09F1242C0F7011383028386
:101AD000DF91CF911F910F91FF90EF90DF90CF900A
:101AE000BF90AF909F900895A580B680E70124969F
:101AF000D7CF88818F5F8883C82FD0E062E070E005
:101B0000CE010E943F198C0120E0AE0141505109E5
:101B1000822F90E08417950764F0C150D048CC0F15
:101B2000DD1FC00FD11FD982C882C5010E94F719DD
:101B3000C9CF880F991FF501E80FF91F60817181E6
:101B4000800F911FFC01718360832F5FE1CFF7014C
:101B500016830583BDCF1F920F920FB60F921124EB
:101B60002F933F938F939F93AF93BF938091B40133
:101B70009091B501A091B601B091B7013091A70144
:101B800023E0230F2D3768F126E8230F0296A11DCD
:101B9000B11D2093A7018093B4019093B501A09348
:101BA000B601B093B7018091A8019091A901A091CD
:101BB000AA01B091AB010196A11DB11D8093A801AE
:101BC0009093A901A093AA01B093AB01BF91AF91EB
:101BD0009F918F913F912F910F900FBE0F901F906B
:101BE00018950196A11DB11DD4CF1F920F920FB66B
:101BF0000F9211240BB60F922F933F934F935F9345
:101C00006F937F938F939F93AF93BF93EF93FF93C4
:101C1000E0914601F09147010995FF91EF91BF9145
:101C2000AF919F918F917F916F915F914F913F9174
:101C30002F910F900BBE0F900FBE0F901F90189515
:101C40001F920F920FB60F9211240BB60F922F9383
:101C50003F934F935F936F937F938F939F93AF9334
:101C6000BF93EF93FF93E0914401F09145010995F3
:101C7000FF91EF91BF91AF919F918F917F916F9164
:101C80005F914F913F912F910F900BBE0F900FBE20
:101C90000F901F9018951F920F920FB60F9211245C
:101CA0000BB60F922F933F934F935F936F937F9356
:101CB0008F939F93AF93BF93EF93FF93E091420174
:101CC000F09143010995FF91EF91BF91AF919F91E1
:101CD0008F917F916F915F914F913F912F910F90D5
:101CE0000BBE0F900FBE0F901F9018951F920F9272
:101CF0000FB60F9211240BB60F922F933F934F9371
:101D00005F936F937F938F939F93AF93BF93EF9363
:101D1000FF93E0914001F09141010995FF91EF910E
:101D2000BF91AF919F918F917F916F915F914F91F3
:101D30003F912F910F900BBE0F900FBE0F901F90F1
:101D400018951F920F920FB60F9211240BB60F9297
:101D50002F933F934F935F936F937F938F939F93B3
:101D6000AF93BF93EF93FF93E0913E01F0913F015A
:101D70000995FF91EF91BF91AF919F918F917F91C5
:101D80006F915F914F913F912F910F900BBE0F90EC
:101D90000FBE0F901F9018951F920F920FB60F92C3
:101DA00011240BB60F922F933F934F935F936F9332
:101DB0007F938F939F93AF93BF93EF93FF93E091A4
:101DC0003C01F0913D010995FF91EF91BF91AF91D9
:101DD0009F918F917F916F915F914F913F912F9143
:101DE0000F900BBE0F900FBE0F901F9018951F9273
:101DF0000F920FB60F9211240BB60F922F933F93B1
:101E00004F935F936F937F938F939F93AF93BF9302
:101E1000EF93FF93E0913A01F0913B010995FF9117
:101E2000EF91BF91AF919F918F917F916F915F9152
:101E30004F913F912F910F900BBE0F900FBE0F90BF
:101E40001F9018951F920F920FB60F9211240BB688
:101E50000F922F933F934F935F936F937F938F9343
:101E60009F93AF93BF93EF93FF93E0913801F0916D
:101E700039010995FF91EF91BF91AF919F918F919A
:101E80007F916F915F914F913F912F910F900BBE7A
:101E90000F900FBE0F901F9018951F920F920FB6C4
:101EA0000F9211240BB60F922F933F934F935F9392
:101EB0006F937F938F939F93AF93BF93CF93DF9352
:101EC000EF93FF937894CEE4D1E0E991F99180818A
:101ED00087FF08C08F77209186019181921720F1AA
:101EE0000E945B0681E0C638D80779F786E984BD91
:101EF000809186018F5F8032D1F080938601FF91BF
:101F0000EF91DF91CF91BF91AF919F918F917F9191
:101F10006F915F914F913F912F910F900BBE0F905A
:101F20000FBE0F901F9018950E949305DBCF109263
:101F30008601E5CFDC011496ED91FC911597908117
:101F400011968C918095892380830895CF93DF9398
:101F500000D01F92CDB7DEB7789483B78C6483BF6F
:101F600087B7816087BF82E08EBD8EB581608EBDF0
:101F70008FB581608FBD85B5846085BD85B5806472
:101F800085BD80918A00836080938A0080918B0058
:101F9000816080938B0087E886B91AB80FB6F894F1
:101FA000A89581B5886181BD11BC0FBE1ABA17BA58
:101FB00014BA11BA12B8109261001092640061E074
:101FC00081E00E94B301EAEBF1E09491EFE5F2E0E9
:101FD0002491E4EAF2E08491882341F19923C1F04D
:101FE00091509C30A8F4E92FF0E0E750F04F0C94AA
:101FF0002219C812C81208100510B012B312B61276
:1020000008100810BA12C012C4129FB59F779FBD66
:10201000E82FF0E0EE0FFF1FE25CFD4FA591B491B9
:102020008FB7F894EC912E2B2C938FBFBC9ABB9A50
:10203000BA9AB89A8E9A8D9A8C9A8091640080612F
:102040008093640080916400886080936400BF9AEC
:102050008091610084608093610080916100826062
:102060008093610080916100816080936100809124
:1020700061008064809361008F9A80916400816028
:102080008093640080916400826080936400A09AD1
:10209000A19AA29ABD9A80916100806180936100AB
:1020A000809161008062809361008091640084600F
:1020B00080936400A79AA69ABE9AA39AA59A8DE1E6
:1020C00090E00E94E8188093CB038CE190E00E949E
:1020D000E8188093CC038DE190E00E94E81885FF1A
:1020E0005BC281E190E00E94E8188F73282F30E0F6
:1020F000522F44275B834A8382E190E00E94E818D4
:10210000AA81BB81A82BBB83AA832A813B81309300
:10211000CF032093CE0383E190E00E94E8188093E0
:10212000D00380E88093D1038093D203EEEECE2ECD
:10213000E1E0DE2EFEE4EF2EF1E0FF2EA6E8AA2E6F
:10214000A1E0BA2EB7E09B2EF60105911491C801CB
:102150000E94E8188983C80101960E94E8188A83C2
:102160000E5F1F4FC8010E94E818803228F06FE10F
:10217000C8010E9401198FE1D7010D911D917D01C8
:10218000F8018183FA81F03809F417C2F13809F4B3
:102190001DC2F11113C03981399D900111242851BC
:1021A0003E4F3B832A8341E0B801C9010E943A0DAA
:1021B00040E0B8018A819B810E943A0D82E0C80EFE
:1021C000D11CAE14BF0409F0BFCF85E190E00E949E
:1021D000E81880FF05C09091EF0194609093EF01A3
:1021E00081FF05C09091F60194609093F60182FF03
:1021F00005C09091FD0194609093FD0183FF05C09F
:102200009091040294609093040284FF05C0909121
:102210000B02946090930B0285FF05C0909112020F
:1022200094609093120286FF05C090911902946009
:102230009093190287FF05C08091200284608093EB
:10224000200286E190E00E94E81880FF05C090918E
:10225000E80194609093E80182FF05C09091270205
:1022600094609093270283FF05C090912E029460A2
:1022700090932E0284FF05C0909135029460909354
:10228000350285FF05C090913C02946090933C021A
:1022900086FF05C09091430294609093430287FFAC
:1022A00005C080914A02846080934A028FE190E0E9
:1022B0000E945B199B838A8385E1AA81BB81119669
:1022C0008C9386E090E00E945B19DC01EEE8F2E07E
:1022D000E4911196EC931197E3EDF2E024912C93A5
:1022E00030E0220F331FF901E25BFD4F859194919D
:1022F00013969C938E931297F901E25CFD4F8591A2
:10230000949115969C938E931497EA81FB81B68FD6
:10231000A58FF093EE03E093ED0381E893E00E9434
:102320006308AA81BB818C93843048F061E081E826
:1023300093E00E94A00881E0EA81FB8180832A81EA
:102340003B813093AD012093AC01D90111968C9162
:102350008F3FA1F060E00E94B301EA81FB8181819F
:102360009CEF980F943020F08251843008F08FEF6A
:1023700042E050E06AEF7AE00E94150260E0AA8134
:10238000BB815D968D919C910E946A042A813B815C
:10239000F9013683258333872287308B2787358B56
:1023A000248B328F218F148E138E82E08093DF0175
:1023B00084E18093E001E7EBF2E0E491F0E0EE0FDE
:1023C000FF1FED56FD4F859194919093E20180930C
:1023D000E101E2E7F2E0E491E093E30160E084E10F
:1023E0000E94B301E8EBF1E086E1DF011D928A95DE
:1023F000E9F782E990E09093B3018093B20182E51E
:1024000090E09093B1018093B0011092CE011092B0
:10241000CF018FEF9FEF9093E5018093E40110923D
:10242000E60183E08093AF018091E3018093AE01E8
:1024300043E050E06CE872E08091DF010E941502F9
:102440008DE190E00E941108682F6F738DE190E09C
:102450000E9478098093E70163E187E090E00E94A1
:1024600078096DE088E090E00E94780980E00E94A1
:10247000910814BC15BC85B5887F85BD87B780647D
:1024800087BF85B5836085BD85B7837E85BF85B7EA
:10249000806285BFB1E0B98320E0C22E20E0D22E59
:1024A00030E0432E30E0532E40E0642E40E0742EA6
:1024B00050E0E52E50E0F52E60E0A62E60E0B62E4E
:1024C000E091ED03F091EE03FB83EA83038CF48D3E
:1024D000E02D309709F080C0F981F13009F0C0C0DB
:1024E0008091D0018823F1F02FB7F8948091B40146
:1024F0009091B501A091B601B091B7012FBF409165
:10250000D1015091D2016091D3017091D401841B0B
:10251000950BA60BB70B4597A105B10518F080E008
:102520000E9491088091BA01882309F499C0F89417
:1025300088E0E6ECF1E0A5EEB3E001900D928A951B
:10254000E1F71092BA0178948091E503E82FF0E06A
:10255000E951FC4F863008F0C4C211928F5FFACF68
:102560009FB59F7D54CD9FB5977F51CD95B59F7DEC
:1025700095BD4ECD90918B009F7790938B0048CD69
:1025800090918B009F7DF9CF90918B00977FF5CF35
:1025900093B79F7D93BF3CCD81E090E00E94E81807
:1025A000181634F063E081E090E00E94F01883E0B8
:1025B000E82FF0E0FB83EA83A8CD4981499DC00163
:1025C000112440E0B80188519E4FF6CD5981599DA4
:1025D000C001112441E0F6CF20E030E0232B21F0B0
:1025E000618180810E940000AA81BB815B96ED9190
:1025F000FC918081813409F4C7C108F022C18A327C
:1026000009F41FC208F0FBC0843209F42AC188F41F
:10261000813209F4CEC1833209F4D4C1811114C0CE
:10262000A0E0B0E0AB2B09F42CC181810E94000036
:1026300028C1863209F4D7C108F4E6C1883209F40A
:10264000F0C1893209F4F6C183819481AA81BB81EA
:10265000B483A3835C969C938E935B97BAE0B98313
:102660008091CD0382FF20C088EE91E09B838A8316
:1026700015E46091D1038091CB0380FF91C46095F4
:10268000661F6627661F8A819B810E94D0071150B2
:10269000AA81BB811796BB83AA831111EACF8091CF
:1026A000CD038B7F8093CD038091CD0383FF21C029
:1026B000E8EEF1E0FB83EA8315E46091D2038091B8
:1026C000D00387FF6FC46095661F6627661F8A81E7
:1026D0009B810E947E0711502A813B81295F3F4FD9
:1026E0003B832A831111E9CF8091CD03877F8093AB
:1026F000CD038091CD0380FF3EC00BEC13E028EFAB
:10270000822E912C37E0332E911067C48091D30331
:1027100084FF4AC488EE91E00E949A078091D30317
:1027200080FF47C48FEE91E00E949A078091D30307
:1027300081FF44C486EF91E00E949A078091D30301
:1027400082FF41C48DEF91E00E949A078091D303EC
:1027500083FF3EC484E092E00E949A0793940F5F47
:102760001F4FF8E08F0E29E09212CECF8091CD035B
:102770008E7F8093CD038091CD0381FF3EC00BEC13
:1027800013E088EF882E912C97E0392E9110AFC47A
:102790008091DC0384FF92C488EE91E00E94470799
:1027A0008091DC0380FF8FC48FEE91E00E94470789
:1027B0008091DC0381FF8CC486EF91E00E94470783
:1027C0008091DC0382FF89C48DEF91E00E9447076E
:1027D0008091DC0383FF86C484E092E00E94470777
:1027E00093940F5F1F4FF8E08F0E29E09212CECF27
:1027F0008091CD03877F8093CD03889561CE8E3203
:1028000009F434C158F48C3209F429C108F420C108
:10281000E114F104B1F1618185E009C1803309F46B
:1028200033C108F42AC1813309F437C1803409F077
:102830000BCFC114D10429F1618180E00E94000016
:1028400020C0823609F469C068F5813509F4DCC01E
:1028500088F4833409F4A6C008F49DC0803509F0DB
:10286000F3CE818160E087FF02C061E080580E9462
:102870009C0107C08E3509F417C160F4823509F058
:10288000E3CEAA81BB815B96ED91FC915C9783813D
:102890009481DECE8036E1F1813609F0D5CE6181BA
:1028A00081E038C0873609F444C058F48436D9F141
:1028B000B8F18536D9F1863609F0C6CE618186E059
:1028C00029C08C3609F404C130F4883609F0BCCE36
:1028D000618188E01FC08D3679F18E3609F0B4CE63
:1028E000A381B481109709F455C38C918F3649F6B2
:1028F0004114510431F22181622F661F6627661F41
:1029000011968C91B0E88B9FC0011124822B39C0A5
:10291000618180E00E948D01B4CF618182E0FACFB5
:10292000618183E0F7CF618184E0F4CF618185E04C
:10293000F1CF618187E0EECF6181862F8F774114DF
:10294000510409F49ECF81111AC010E000E067FD28
:102950000BC00F5F1F4F0038110509F492CF60E0E4
:10296000C8010E940000F5CF0F5F1F4F003811050E
:1029700009F487CF61E0C8010E940000F5CF6078BC
:1029800090E00E9400007DCFC114D10409F479CFFA
:10299000618181E053CFC114D10409F472CF618108
:1029A00082E04CCFC114D10409F46BCF618183E084
:1029B00045CF20E030E0232B09F463CF81810E94D2
:1029C00000005FCF40E050E0452B09F45ACF8181F1
:1029D00087FD03C00E94000054CF819590E091953F
:1029E00081959109F7CF80E090E0892B09F449CFD8
:1029F000818187FD03C00E94000043CF819590E054
:102A0000919581959109F7CF6114710409F439CF3B
:102A1000818160E087FF02C061E080580E94000071
:102A200030CFE114F10409F42CCF618180E00E94E1
:102A3000000027CFE114F10409F423CF618181E084
:102A4000F6CFE114F10409F41CCF618182E0EFCFED
:102A5000E114F10409F415CF618183E0E8CFE114BA
:102A6000F10409F40ECF618184E0E1CFE114F104B7
:102A700009F407CF618186E0DACFE114F10409F4AB
:102A800000CF618187E0D3CFA114B10409F4F9CE5E
:102A9000618181E00E940000F4CEA114B10409F428
:102AA000F0CE618182E0F6CFA381B481109709F462
:102AB00074C28C918F3509F0E4CE20E030E0232BF6
:102AC00009F4DFCE11969C9181810E940000D9CE3D
:102AD00040E050E0452B09F4D4CE81810E940000F3
:102AE000D0CEE0E0F0E0EF2B21F085EE93E00E9405
:102AF00000008091E703811117C09091E8039111C4
:102B000013C080E090E0892B19F080E00E94000063
:102B10008091D001882321F081E00E94F106A0CDB0
:102B200081E00E9491089CCD9091D001992309F4F5
:102B300095C08057803108F08EC081E00E94F10678
:102B4000F091E503FA838091D701F8130AC04F2F63
:102B500050E069ED71E087EE93E00E94801A892BC6
:102B600061F01092D60188E0E5EEF3E0A7EDB1E068
:102B700001900D928A95E1F773CD8091D6018F5F18
:102B80008093D6012A81233009F04CC09091E7034D
:102B9000892F87701091E803853029F41093D501AF
:102BA0000E94EC075DCD843059F1282F30E084304D
:102BB00010F54091D5014423F1F0A42FA150BB0B97
:102BC000AA0FBB1FAA0FBB1FA20FB31F1196BB8377
:102BD000AA8393FF1AC061E08A819B810E94090940
:102BE000882309F43DCD612F8A819B810E94780959
:102BF000181336CDD5CFF9013196FB83EA83E9CF9F
:102C00002DE130E03B832A83E4CF60E08A819B8121
:102C10000E940909882309F423CD8A819B810E949F
:102C20001108E6CF3A81343009F01ACD8091E703DC
:102C3000682F70E0762F6627662773709091E803FF
:102C4000692B6F5F7F4F25EF37E04091E9038C7070
:102C50000E949B0905CD80E00E949108E091E70366
:102C6000EF3F61F48091E8038111FACC80E090E0BD
:102C7000892B09F4F5CC0E940000F2CCE7FD0CC0D2
:102C80000091EA032091E9034091E80360E08E2F70
:102C900090E00E94090AE4CCE03C08F06BC19091FE
:102CA000CE0197FFDDCC8091E803282F30E0A90109
:102CB00040955095440F551F440F551F407C51704F
:102CC000EF734E2B5B834A8335952795522F5370B4
:102CD000352E2091E503253069F58C788C3051F53F
:102CE0000E941308AA81BB818A179B0721F0AF3F7E
:102CF000B14009F0B5CCF091E8032F2F30E0522F0E
:102D00004427442753708091E903480F511D4F5FBA
:102D10005F4F5B834A831091EA0361E0CA010E941E
:102D20000909612F882309F49BCC8A819B810E9429
:102D3000780996CC8A809B8051E0851A9108880C8E
:102D4000991C880C991C832884010F5F1F4F809168
:102D5000E6018823F9F096FF41C0C80160E071E008
:102D60000E940E19682F81E090E00E947809C80146
:102D700017FF02C081509F4F692F89E090E00E94A9
:102D8000780980E090E0892B19F0C8010E940000CA
:102D90001092E6018091CE0180FD3CC08091E50358
:102DA000843009F052C08091E8038978813009F0BD
:102DB00057CC6091E90380E090E0892B19F0C801BD
:102DC0000E94000080E090E0892B09F449CC4091FA
:102DD000E903632DC8010E94000042CC6A817B8117
:102DE0006F73772781E090E00E9478096A817B8188
:102DF000E6E075956795EA95E1F789E090E00E9435
:102E0000780980E090E0892B19F28A819B810E94E9
:102E10000000BECF86FF0CC00E94130880179107E8
:102E200009F4BCCF0D3F87E018070CF0B7CF18CCE2
:102E30000E941308AA81BB818A179B0709F4AECFB1
:102E4000AF3FB14009F4AACF0BCC833079F5409164
:102E5000E803F42FF1708F2E43FB992490F880E063
:102E600090E0892B39F04770292D6A817B81C80158
:102E70000E9400008091CE0186FF0BC080E090E0B0
:102E8000892B09F4EDCB492D682DC8010E94000063
:102E9000E7CB80E090E0892B09F4E2CB292D482D87
:102EA000632D8A819B810E940000DACB863009F075
:102EB000D7CB8091E803982F9978913021F08F78C3
:102EC000803809F0CDCB8091CE0186FF2BC00E94C7
:102ED00013088017910711F58091E90390E0382FCE
:102EE0002227222733704091EA03A42FA20FB32F89
:102EF000B11D1196BB83AA831091EB03959587951D
:102F0000959587958370992782309105B1F0039745
:102F100009F0A6CB61E08A819B8101CF0D3F17406C
:102F2000DCF69ECB0E941308EA81FB818E179F0777
:102F300099F2EF3FF14081F293CB14FF91CB61E026
:102F40008A819B810E940909882309F489CB8A819F
:102F50009B810E941108912F977061E070E001C081
:102F6000660F9A95EAF713FF02C0682BDECE6095D4
:102F70006823DBCEE83E08F073CBE05CFF0B80916A
:102F8000E8030091EB032091EA034091E90361E03B
:102F90009E2F7FCE3AE0398363CB4AE0498360CBF2
:102FA000607871CB607893CB88EE91E00E945306F5
:102FB000B5CB8FEE91E00E945306B8CB86EF91E03F
:102FC0000E945306BBCB8DEF91E00E945306BECB0F
:102FD00084E092E00E945306C1CB882D90E00596D4
:102FE000389EA001399E500D11245B834A83CA018B
:102FF00088519E4FD80118962C9120FF4AC00E94FC
:103000009A078A819B8181519E4FF801208521FF7B
:1030100043C00E949A078A819B818A509E4FD801A3
:1030200018962C9122FF3BC00E949A078A819B81AF
:1030300083509E4FF801208523FF34C00E949A07D9
:103040008A819B818C5F9D4FD80118962C9124FF1B
:103050002CC00E949A078A819B81855F9D4FF80151
:10306000208525FF25C00E949A078A819B818E5E5C
:103070009D4FD80118962C9126FF1DC00E949A07DB
:103080008A819B81875E9D4FF801208527FFA2CF13
:1030900063CB0E945306B5CF0E945306BCCF0E945B
:1030A0005306C4CF0E945306CBCF0E945306D3CF02
:1030B0000E945306DACF0E945306E2CF88EE91E0D9
:1030C0000E944A066DCB8FEE91E00E944A0670CBBB
:1030D00086EF91E00E944A0673CB8DEF91E00E944B
:1030E0004A0676CB84E092E00E944A0679CB882D8E
:1030F00090E00596389EA001399E500D11245B8307
:103100004A83CA0188519E4FD80151962C9120FFC5
:103110004AC00E9447078A819B8181519E4FF801D6
:10312000218921FF43C00E9447078A819B818A50E1
:103130009E4FD80151962C9122FF3BC00E94470719
:103140008A819B8183509E4FF801218923FF34C0DF
:103150000E9447078A819B818C5F9D4FD8015196C1
:103160002C9124FF2CC00E9447078A819B81855F98
:103170009D4FF801218925FF25C00E9447078A81BC
:103180009B818E5E9D4FD80151962C9126FF1DC0CC
:103190000E9447078A819B81875E9D4FF8012189A4
:1031A00027FFA2CF1BCB0E944A06B5CF0E944A063A
:1031B000BCCF0E944A06C4CF0E944A06CBCF0E94D1
:1031C0004A06D3CF0E944A06DACF0E944A06E2CFCF
:1031D000E199FECF9FBB8EBBE09A99278DB30895EE
:1031E000262FE199FECF9FBB8EBBE09A01970DB2CF
:1031F000021631F02DBB0FB6F894E29AE19A0FBE99
:103200000895262FE199FECF9FBB8EBB2DBB0FB635
:10321000F894E29AE19A0FBE0196089597FB072E63
:1032200016F4009407D077FD09D00E942B1907FCF3
:1032300005D03EF4909581959F4F089570956195C6
:103240007F4F0895EE0FFF1F0024001C0BBE079058
:10325000F691E02D0994AA1BBB1B51E107C0AA1FE0
:10326000BB1FA617B70710F0A61BB70B881F991F27
:103270005A95A9F780959095BC01CD0108950F93BB
:103280001F93CF93DF93869F8001879F100D969F9A
:10329000100D1124C8010E945B19EC01009729F060
:1032A000A80170E060E00E948D1ACE01DF91CF91FD
:1032B0001F910F9108950F931F93CF93DF93823047
:1032C000910510F482E090E0E091F103F091F203B7
:1032D00030E020E0B0E0A0E0309799F4211531050E
:1032E00009F44AC0281B390B24303105D8F58A81EE
:1032F0009B816115710589F1FB0193838283FE0136
:1033000011C0408151810281138148175907E0F0B3
:103310004817590799F4109761F012960C93129779
:1033200013961C933296CF01DF91CF911F910F918D
:1033300008950093F1031093F203F4CF21153105A2
:1033400051F04217530738F0A901DB019A01BD0182
:10335000DF01F801C1CFEF01F9CF9093F203809321
:10336000F103CDCFFE01E20FF31F81939193225021
:10337000310939832883D7CF2091EF033091F003AF
:10338000232B41F420914A0130914B013093F003FB
:103390002093EF0320914801309149012115310517
:1033A00041F42DB73EB740914C0150914D01241B83
:1033B000350BE091EF03F091F003E217F307A0F46F
:1033C0002E1B3F0B2817390778F0AC014E5F5F4F7B
:1033D0002417350748F04E0F5F1F5093F0034093BA
:1033E000EF03819391939FCFF0E0E0E09CCFCF93E8
:1033F000DF930097E9F0FC01329713821282A091CB
:10340000F103B091F203ED0130E020E01097A1F458
:1034100020813181820F931F2091EF033091F003BF
:103420002817390709F061C0F093F003E093EF0328
:10343000DF91CF910895EA01CE17DF07E8F54A81C1
:103440005B819E0141155105B1F7E901FB83EA83D8
:1034500049915991C40FD51FEC17FD0761F4808184
:1034600091810296840F951FE90199838883828157
:1034700093819B838A83F0E0E0E012968D919C918A
:1034800013970097B9F52D913C911197CD010296B4
:10349000820F931F2091EF033091F0032817390713
:1034A00039F6309751F51092F2031092F103B09370
:1034B000F003A093EF03BCCFD383C283408151813B
:1034C000840F951FC817D90761F44E5F5F4F88813D
:1034D0009981480F591F518340838A819B8193832F
:1034E00082832115310509F0B0CFF093F203E09308
:1034F000F1039ECFFD01DC01C0CF13821282D7CF32
:10350000FB01DC0104C08D910190801921F4415030
:103510005040C8F7881B990B0895DC0101C06D93DA
:0C35200041505040E0F70895F894FFCFB0
:10352C001CFF1BFF1AFF19FF18FF17FF16FF15FFD3
:10353C0014FF13FF12FF11FF10FF0FFF0EFF0DFF03
:10354C000CFF0BFF0AFF09FF08FF07FF06FF05FF33
:10355C0004FF03FF02FF01FF540400000000000001
:10356C0000000000000000000000F30380003601A2
:10357C003401320130012E012C012A0128012601CF
:10358C002401220120011E011C011A01180116013F
:10359C001401120110010E010C010A0108010601AF
:0635AC0004010201000110
:00000001FF
